S01300004E617473756B79436F64652E73726563A7
S11300000C94D9000C9401010C9401010C9401018D
S11300100C9401010C9401010C9401010C94010154
S11300200C9401010C9401010C9401010C94010144
S11300300C9401010C9401010C9401010C94010134
S11300400C9401010C9401010C9401010C94010124
S11300500C9456080C9401010C9401010C940101B8
S11300600C9401010C9401010C9401010C94010104
S11300700C9401010C9401010C9401010C940101F4
S11300800C9401010C9401010C9401010C943C09A1
S11300900C9401010C9401010C9401010C940101D4
S11300A00C9401010C9401010C9401016E616E0029
S11300B0696E660000407A10F35A00A0724E180967
S11300C00010A5D4E80000E87648170000E40B54BB
S11300D0020000CA9A3B000000E1F505000080968A
S11300E09800000040420F000000A08601000000BC
S11300F0102700000000E803000000006400000076
S113010000000A00000000000100000000002C763E
S1130110D888DC674F0823DFC1DFAE59E1B1B79659
S1130120E5E3E453C63AE651997696E8E6C28426B6
S1130130EB898C9B62ED407C6FFCEFBC9C9F40F292
S1130140BAA56FA5F490055A2AF75C936B6CF9670E
S11301506DC11BFCE0E40D47FEF520E6B500D0EDD3
S1130160902E0300943577050080841E080000203B
S11301704E0A000000C80C333333330F986E1283D9
S11301801141EF8D2114893BE65516CFFEE6DB18AD
S1130190D1844B381BF77C1D901DA4BBE424203272
S11301A084725E228100C9F124ECA1E53D27C80BCD
S11301B0D10B11241FBECFEFDAE0DEBFCDBF11E0BB
S11301C0A0E0B1E0E2E7FEE202C005900D92A83B98
S11301D0B107D9F723E0A8EBB1E001C01D92A93023
S11301E0B207E1F710E0C8EDD0E004C02197FE01AA
S11301F00E94ED13C73DD107C9F70E94610A0C9410
S11302002C170C940000FC0115821482168284E0E1
S113021087830895EF92FF920F93CF93DF93EC01BE
S11302207B01EAE7F0E0908196609083ACE7B0E070
S11302309C9190649C93908190689083AEE7B0E029
S11302409C91906F9C9395B7906895BF95B7906873
S113025095BF90819068908310927B009081906408
S113026090831B821A82198218824E832F838C8179
S11302709D81892B31F4842F90E00E9402149D8388
S11302808C838E81882389F090E0292F30E0F70158
S1130290E20FF31F80814C815D81FA01E20FF31FAD
S11302A080839F5F8E81981780F380B38C7F80BB9F
S11302B087B18F7387B9083058F481E0002E01C0EC
S11302C0880F0A94EAF7E4E2F0E0A5E2B0E045C062
S11302D0003160F481E098EF900F01C0880F9A9587
S11302E0EAF7EAE2F0E0ABE2B0E037C00631D0F47E
S11302F0802F90E09C01205131092230310544F0D7
S11303002E5F3F4F81E001C0880F2A95EAF705C0B0
S113031081E001C0880F2A95EAF7E0E3F0E0A1E369
S1130320B0E01BC0083160F481E090EF900F01C091
S1130330880F9A95EAF7E7E2F0E0A8E2B0E00DC092
S1130340083131F480E4EDE2F0E0AEE2B0E005C063
S113035080E0E0E0F0E0A0E0B0E09C91282F209560
S113036092239C939081892B80830A87DF91CF917C
S11303700F91FF90EF900895AF92BF92CF92DF92CA
S1130380EF92FF920F931F93CF93DF93EC018B01B6
S11303908C819D81892B09F483C08E81882309F483
S11303A07CC080E0E82FF0E0EE0FFF1FE00FF11FAC
S11303B0118210828F5F9E818917A0F38F81811132
S11303C03EC04FC09A2D921788F5C92ED12C2C818E
S11303D03D812C0D3D1DD9013C91383030F0385011
S11303E0DB012C9120622C9304C0DB012C912F7D26
S11303F02C93DA018C932C91232B2C932081206C49
S11304002083208124FFFDCF20812F772083D701F3
S11304102D913C91D601AA0FBB1FA00FB11FCD9007
S1130420DC9011972C0D3D1D2D933C939F5F2E81E5
S1130430921748F2B3949F81B91678F012C0B12C88
S1130440A12C4CE750E080E4EAE7F0E00F2EF8E757
S1130450EF2EF12CF02D6BE770E02E812111B2CF3D
S1130460E9CF8E818823E1F020E0E22FF0E0EE0F67
S1130470FF1FE00FF11F6F8170E0AB0155954795A9
S113048080819181840F951F0E944F137183608333
S11304902F5F8E81281748F303C08F818111CFCF3E
S11304A0DF91CF911F910F91FF90EF90DF90CF904C
S11304B0BF90AF9008952F923F924F925F926F92A8
S11304C07F928F929F92AF92BF92CF92DF92EF92E0
S11304D0FF920F931F93CF93DF93CDB7DEB7289787
S11304E00FB6F894DEBF0FBECDBF7C014DB75EB72B
S11304F05E834D832DB63EB6DC0116962C91822F79
S113050090E0880F991FEDB7FEB7E81BF90B0FB603
S1130510F894FEBF0FBEEDBF4DB75EB74F5F5F4FA0
S11305202A01ADB7BEB7A81BB90B0FB6F894BEBF6E
S11305300FBEADBFEDB7FEB73196FA83E98399805C
S11305408A804DB75EB7481B590B0FB6F8945EBF4F
S11305500FBE4DBF8DB79EB701969C838B83DB8006
S1130560CC80D7018D919C91892B31F5822F90E01D
S1130570880F991F0E940214F70191838083892BAD
S113058009F4D3C086818823B9F020E030E0D70194
S1130590C901880F991FED91FC911197E80FF91F7C
S11305A0118210822F5F3F4F16968C91169790E020
S11305B0281739076CF37D01D70112968D919C9110
S11305C01397892B09F0B7C016968C9190E0880F89
S11305D0991F0E940214F70193838283892B09F4E3
S11305E0A4C08681882309F4A6C020E030E04FEF40
S11305F053E0D701C901880F991F1296ED91FC9120
S11306001397E80FF91F518340832F5F3F4F1696CE
S11306108C91169790E02817390764F37D018BC0FD
S1130620B201C5010E94BC01D5011696EC90F12CD3
S11306301E141F04A4F58D2D9C2DF201A92DB82D97
S1130640272D362DAD0198878F83CA010115110519
S113065009F47DC0DC016D917C9140815181641766
S1130660750708F46EC0AF81B8856D917C914081A7
S113067051814617570730F440815181AF81B885C5
S11306804D935C932F5F3F4F4F8158854E5F5F4F73
S113069058874F83329602962E153F05BCF20F5FA2
S11306A01F4F0A30110509F0BBCFD50116968C9166
S11306B08823A9F16B817C81A981BA8120E030E093
S11306C0AD01D501FB0101911191BF01C901880F51
S11306D0991FED91FC911197E80FF91FE080F180CB
S11306E0E016F10610F411830083FA0101911191CF
S11306F0AF011296ED91FC911397E80FF91F8081D9
S113070091810817190710F4118300832F5F3F4F5D
S113071016968C91169790E0281739079CF20FB61D
S1130720F8943EBE0FBE2DBE18C00FB6F8943EBE60
S11307300FBE2DBE12C000E010E0712C612C5701D9
S11307406FCF40815181DC014D935C938CCF40810C
S11307505181DC014D935C938FCFED81FE810FB607
S1130760F894FEBF0FBEEDBF28960FB6F894DEBF17
S11307700FBECDBFDF91CF911F910F91FF90EF90EE
S1130780DF90CF90BF90AF909F908F907F906F90AD
S11307905F904F903F902F900895AF92BF92CF9269
S11307A0DF92EF92FF920F931F93CF93DF938C010D
S11307B0D62FC72F0E94BC01D80116968C9188238E
S11307C009F458C0ED2EFC2EC0E0D0E0C12CD12C91
S11307D00F2EF8EEAF2EF02D0F2EF3E0BF2EF02DDE
S11307E0D8011296ED91FC9113979E01220F331FAD
S11307F0E20FF31F808191814D915C91FA01E20F28
S1130800F31F20813181F901E81BF90BC1F0D701F5
S11308102D913C91A90160E070E09A01AB01281B85
S1130820390B41095109A8EEB3E00E94AB139F01B3
S113083040E050E00E948513922F832F02C09C2D2C
S11308408D2D292F382F293EB3E03B0714F02A2D94
S11308503B2D332314F42C2D3D2DF701219331939B
S11308607F012196D80116968C9190E0C817D9077C
S11308700CF4B6CFDF91CF911F910F91FF90EF90C1
S1130880DF90CF90BF90AF9008952F923F924F92F8
S11308905F926F927F928F929F92AF92BF92CF920C
S11308A0DF92EF92FF920F931F93CF93DF9300D0C9
S11308B000D0CDB7DEB79A8389835B016A012B83AD
S11308C00E94CD03E981FA812680312CA1014E5F7B
S11308D05F4F80E090E0E12CF12C412C512C32014F
S11308E0912C1C82E0E0F0E008EE13E0812C12C0B1
S11308F0FC81F43060F4E22FF0E0E150F048EE0FB8
S1130900FF1FEA0DFB1D0190F081E02D02C0E0E025
S1130910F82D2C832C81222319F0253021F006C0D8
S113092079995AC055C0379957C052C03B81332377
S113093049F004C0E0E0F82D01C0F80198012E1B35
S11309403F0BF901ED33F10510F099249394CE1681
S1130950DF0680F4809FD001819FB00D909FB00D81
S113096011249F010E94A413460E571E681E791E6F
S1130970EE0EFF1E2C812F5F822F90E084179507C7
S11309800CF4B6CF911014C03FEF231A330A28EEAB
S113099033E0229EC001239E900D329E900D1124BF
S11309A0E981FA81208531852817390774F01BC045
S11309B0970140E050E0C301B2010E946313C901F2
S11309C0E981FA81318720870EC080E090E00BC076
S11309D0FB81F111AFCFCECF2B812111AECFF80126
S11309E099249394B4CF0F900F900F900F90DF91B0
S11309F0CF911F910F91FF90EF90DF90CF90BF9018
S1130A00AF909F908F907F906F905F904F903F90AA
S1130A102F900895FC0192859F3F09F463C098309C
S1130A2050F481E001C0880F9A95EAF7E4E2F0E01F
S1130A30A5E2B0E043C0903158F4985081E001C081
S1130A40880F9A95EAF7EAE2F0E0ABE2B0E036C04C
S1130A509631D0F4892F90E09C0120513109223045
S1130A60310544F02E5F3F4F81E001C0880F2A9585
S1130A70EAF705C081E001C0880F2A95EAF7E0E3B0
S1130A80F0E0A1E3B0E01AC0983158F4905181E04D
S1130A9001C0880F9A95EAF7E7E2F0E0A8E2B0E037
S1130AA00DC0983131F480E4EDE2F0E0AEE2B0E064
S1130AB005C080E0E0E0F0E0A0E0B0E06F3F21F4AA
S1130AC09C9198279C930BC0662321F09C91982BB2
S1130AD09C9305C09C91282F209592239C939081F0
S1130AE0892B808308955F926F927F928F929F9259
S1130AF0AF92BF92CF92DF92EF92FF920F931F9328
S1130B00CF93DF93FC0122813381232B09F44EC060
S1130B102681222309F44AC04C016894EE24E1F8AA
S1130B20F12CC12CD12C3601660C771C87010250A4
S1130B301109F401A080B180A60CB71CE701F501EE
S1130B4051905F01C8010E941617581621F0652DB7
S1130B50C8010E941E170F5F1F4F0C171D0779F75E
S1130B60F40102811381060D171D5701F2E0AF0E47
S1130B70B11CF80171908F01CE010E9416177816EE
S1130B8021F0672DCE010E941E172196AC16BD06DA
S1130B9081F7FFEFCF1ADF0A84E0E80EF11CF401BD
S1130BA0868190E0C816D9060CF4BDCFDF91CF91B1
S1130BB01F910F91FF90EF90DF90CF90BF90AF9077
S1130BC09F908F907F906F905F900895AF92BF92A7
S1130BD0CF92DF92EF92FF920F931F93CF93DF9305
S1130BE06C01DC018D919C911197892B29F5169646
S1130BF08C9190E0880F991F0E940214F601918352
S1130C008083892B09F48AC08681882309F481C0F2
S1130C1080E090E09C01220F331FD601ED91FC91FE
S1130C201197E20FF31F11821082019616962C91F0
S1130C3030E08217930774F3F60182819381892B44
S1130C4031F0D60116968C9181112DC067C0F60142
S1130C50868190E0880F991F0E940214D601139692
S1130C609C938E931297892B09F458C016968C91F5
S1130C70882309F453C080E090E04FEF53E09C01D7
S1130C80220F331FD6011296ED91FC911397E20FB8
S1130C90F31F51834083019616962C9130E08217FE
S1130CA093076CF3CECFC0E0D0E0A12CB12C85012A
S1130CB0000F111FF601E080F180E00EF11ECE015D
S1130CC00E941617D7018C93CE0101960E94161725
S1130CD0F7018183D60112968D919C911397080F89
S1130CE0191FCE0102960E941617F8018083CE01C7
S1130CF003960E941617D80111968C93BFEFAB1A76
S1130D00BB0A2496F601868190E0A816B9067CF207
S1130D1005C082819381892B09F499CFDF91CF910A
S1130D201F910F91FF90EF90DF90CF90BF90AF9005
S1130D300895CF93DF93EC018A819B810E949714DD
S1130D408C819D810E949714888199810E949714B7
S1130D50DF91CF9108950F931F93DC01CB01880F8E
S1130D60991FAA1FBB1F880F991FAA1FBB1F9C0195
S1130D70AD01220F331F441F551F220F331F441F81
S1130D80551F60E07BE187EB90E00E946313CA018A
S1130D90B90161507109810991090E949B0E0E9459
S1130DA0290F072F182F292F332727FD3A95009352
S1130DB0CD006093CC0088E18093C9008EE08093DD
S1130DC0CA001F910F910895E8ECF0E0908195FF1F
S1130DD0FDCF8093CE000895E8ECF0E08081882375
S1130DE0ECF78091CE0008958091C800881F882771
S1130DF0881F0895CF93DF93EC018881882331F015
S1130E0021960E94E40689918111FBCFDF91CF9155
S1130E10089535B121E0232725B90E94FA06289ABE
S1130E208AE00E94E40608954430E1F0453089F1F7
S1130E30433009F045C09F938F937F936F9389E16B
S1130E4091E09F938F938AE392E09F938F930E9404
S1130E5085168DB79EB708960FB6F8949EBF0FBE41
S1130E608DBF44C09F938F937F936F938EE191E0E6
S1130E709F938F938AE392E09F938F930E948516AA
S1130E808DB79EB708960FB6F8949EBF0FBE8DBF60
S1130E902DC09F938F937F936F9383E291E09F93F1
S1130EA08F938AE392E09F938F930E9485168DB768
S1130EB09EB708960FB6F8949EBF0FBE8DBF16C09E
S1130EC09F938F937F936F9388E291E09F938F9387
S1130ED08AE392E09F938F930E9485168DB79EB705
S1130EE008960FB6F8949EBF0FBE8DBF8AE392E0BA
S1130EF00E94FA060895CF93C62F662369F0462F01
S1130F0050E06AE372E00E941D1695B181E08927E2
S1130F1085B9C03181F40AC04AE06AE372E00E94F4
S1130F20281695B181E0892785B90BC083E191E04A
S1130F300E94FA0606C0C23021F486E191E00E94C4
S1130F40FA068AE392E00E94FA06289ACF9108955D
S1130F50CF93C62F662369F0462F50E06AE372E010
S1130F600E941D1695B181E0892785B9C03181F4AD
S1130F700AC04AE06AE372E00E94281695B181E053
S1130F80892785B90BC083E191E00E94FA0606C067
S1130F90C23021F486E191E00E94FA068AE392E0ED
S1130FA00E94FA06289ACF910895883058F491E067
S1130FB001C0990F8A95EAF7892FE4E2F0E0A5E2EF
S1130FC0B0E044C0803160F498EF980F81E001C034
S1130FD0880F9A95EAF7EAE2F0E0ABE2B0E036C0B7
S1130FE08631C8F490E09C0120513109223031054A
S1130FF044F02E5F3F4F81E001C0880F2A95EAF745
S113100005C081E001C0880F2A95EAF7E0E3F0E02B
S1131010A1E3B0E01BC0883160F490EF980F81E049
S113102001C0880F9A95EAF7E7E2F0E0A8E2B0E0A1
S11310300DC0883131F480E4EDE2F0E0AEE2B0E0DE
S113104005C080E0E0E0F0E0A0E0B0E06F3F21F414
S11310509C9198279C930BC0662321F09C91982B1C
S11310609C9305C09C91282F209592239C9390815A
S1131070892B80830895CF93C1E012C00E94EC06AF
S11310809091C701E92FF0E0E351FE4F80839F5F09
S11310909093C7018A3021F4C093EC011092C701E8
S11310A00E94F4068111EACFCF9108951F920F9206
S11310B00FB60F9211242F933F934F935F936F9327
S11310C07F938F939F93AF93BF93EF93FF930E946C
S11310D03B08FF91EF91BF91AF919F918F917F91C9
S11310E06F915F914F913F912F910F900FBE0F9091
S11310F01F901895CF92DF92EF92FF92CF93DF93D8
S11311002091E8013091E901A901481B590BCA015A
S11311105093C6014093C50185325AEF9507ECF40C
S11311208091C3019091C40185329A4F3CF46DEDD6
S11311307FEF89EC91E00E94C80C04C089EC91E037
S11311400E94590D89EC91E00E94280D85EA9EE0E9
S11311500197F1F700C000001FC08C3D9540E4F0FA
S11311608091C3019091C4018C3D95403CF06DED9C
S11311707FEF89EC91E00E94EE0C04C089EC91E0D1
S11311800E94490D89EC91E00E94390D85EA9EE0A8
S11311900197F1F700C000006091C5017091C6018C
S11311A08091C3019091C401EB01C81BD90BD0936A
S11311B0C201C093C1017093C4016093C301072E9F
S11311C0000C880B990B0E949D0E2FE832EC45E72A
S11311D05DE30E94660F6B017C01BE01DD0F880B8D
S11311E0990B0E949D0E2DEC3CEC4CE050E40E94C7
S11311F0660F9B01AC01C701B6010E94870D0E94D6
S1131200650E8091120190E08617970724F460918F
S1131210120170E00FC08091120190E091958195C8
S113122091096817790734F46091120170E071959F
S113123061957109772364F4409112018091120140
S113124050E0680F711D89EC91E00E94170D0DC0EC
S1131250409112018091120150E0461B570B682FF8
S113126070E089EC91E00E94170DDF91CF91FF901F
S1131270EF90DF90CF9008951F920F920FB60F92C8
S113128011242F933F938F939F93AF93BF9388E839
S11312909FEF90939500809394008091BF0190916B
S11312A0C00101968436910529F09093C001809382
S11312B0BF0117C01092C0011092BF0180912D028E
S11312C090912E02A0912F02B09130020196A11D9F
S11312D0B11D80932D0290932E02A0932F02B09300
S11312E030024D9B24C08091BE01811122C08091A7
S11312F0310290913202A0913302B09134020196EE
S1131300A11DB11D8093310290933202A093330248
S1131310B09334028091BC019091BD0101969093E9
S1131320BD018093BC0181E08093BE0102C0109294
S1131330BE011A9B24C08091BB01811122C08091FF
S1131340350290913602A0913702B091380201968D
S1131350A11DB11D8093350290933602A0933702EC
S1131360B09338028091B9019091BA01019690939B
S1131370BA018093B90181E08093BB0102C010924D
S1131380BB018091B9019091BA018930910538F47B
S11313902091BC013091BD0129303105F0F120913B
S11313A0BC013091BD01821B930B8E3F2FEF92073E
S11313B0FCF00397ECF45F9A289A80912D029091A7
S11313C02E02A0912F02B091300282389105A1051E
S11313D0B105D8F0809112018E5F809312011092B2
S11313E02D0210922E0210922F02109230020DC084
S11313F010922D0210922E0210922F02109230029F
S113140088E28093120128985F981092BA01109292
S1131410B9011092BD011092BC01BF91AF919F918F
S11314208F913F912F910F900FBE0F901F901895A1
S1131430CF93DF938DE291E00E9409071092B801E7
S1131440E0E0C4EDD1E0F0E0EE0FFF1F8881998168
S1131450E80FF91F60E0808191810E947B0785E499
S113146091E00E94FA06E091B801EF5FE093B801C1
S1131470E43048F385E491E00E9409071092B80132
S1131480E0E0C4EDD1E0F0E0EE0FFF1F8A819B8124
S1131490E80FF91F60E0808191810E947B0785E459
S11314A091E00E94FA06E091B801EF5FE093B80181
S11314B0E43048F385E491E00E940907DF91CF917D
S11314C0089508E124E044E06EE071E084ED91E0E9
S11314D00E940A0121E041E066E071E089EC91E0BC
S11314E00E94DD0B60E076E980E090E00E94AB06AC
S11314F02FE78FE492E1215080409040E1F700C053
S1131500000024982C9A56985E9A87E491E00E94F1
S113151009078DE591E00E94FA0689EC91E00E94AA
S1131520680D60E090E00E94A80782E791E00E94C5
S11315300907EFE7F0E08081808324E04BE750E087
S1131540ACE7B0E030E4EAE7F0E068E770E0EA0135
S11315508881806288833C938C918C938081806C99
S11315608083808184FFFDCF80818F778083EB012E
S1131570088119818091EA019091EB01800F911FFC
S11315809093EB018093EA01215009F78D32D1E069
S11315909D0748F096958795969587959093EB01CE
S11315A08093EA0104C01092EB011092EA0187E7EC
S11315B091E00E94FA066091EA017091EB0180E0EB
S11315C090E00E949B0E23E333E343E550E40E9442
S11315D0660F20E030EC4FE754E40E94F30D29E954
S11315E037EA4FE85EE30E94F30D43E00E941407DC
S11315F08CE891E00E94090760E08FE00E94D50723
S113160081E080936F007894C0E48091EC0188239A
S113161089F08DEE91E00E94FA0683E991E00E9440
S11316200907EDEEF1E0DF01DC2F1D92DA95E9F711
S11316301092EC011C9935C05F9A579A61E084EDD1
S113164091E00E940A0587E991E00E94090710923F
S1131650C8018BB180588BB9579A84ED91E00E94F0
S11316605B028FE59AEE0197F1F700C000008091CC
S1131670C8018F5F8093C801803558F35F98579AEB
S11316802898209A60E084ED91E00E940A0581E0A8
S11316908093E7010E94180A84ED91E00E9473058B
S11316A0B4CF4E99B2CF61E084ED91E00E940A0577
S11316B08091E701811111C061E08FE00E94D5079C
S11316C060E080E00E94D50784ED91E00E94E60589
S11316D00E94180A81E08093E70161E080E00E94A3
S11316E0D50760E08FE00E94D5078EEA91E00E9462
S11316F0090761E084ED91E00E940A059FEFAEE9DD
S1131700B4E29150A040B040E1F700C00000109254
S11317102D0210922E0210922F021092300210927B
S1131720310210923202109233021092340210925B
S11317303502109236021092370210923802F89451
S113174010929000E1E9F0E0808181608083E1E71C
S1131750F0E080818160808388E89FEF909395001A
S113176080939400789481E08093390220E04CE3E4
S113177050E06FED71E084ED91E00E944504909398
S1131780E9018093E80184EC99E00E947A08EECFA5
S113179084ED91E00E94030189EC91E00E94DA0B50
S11317A0089589EC91E00E94850D84ED91E00E94FA
S11317B099060895FC0112860895AF92BF92CF92C4
S11317C0DF92EF92FF920F931F93CF93DF935C010D
S11317D0F894DC011A961C921092900010928000EA
S11317E014BC109291001092810015BCDB018B0196
S11317F0085F1F4F31E06894EE24E7F8F12C0F2EB8
S1131800F0E9CF2ED12CF02DFD018D919C911197F3
S11318108734910539F484B5806C84BD2F98279A58
S113182030930403808191818834910539F484B51F
S1131830806384BD5898509A3093040380819181C9
S11318408838910541F4E7018881806C88832D985C
S1131850259A30930303808191818A38910541F45C
S1131860E7018881806388832E98269A3093030346
S1131870808191818C38910541F42F98279AE70152
S113188088818C60888330930303129680819181D0
S11318908839910541F446983E9AF6018081806C1E
S11318A0808330930203A017B10709F0ADCF809174
S11318B00403811109C080910303811113C0809135
S11318C00203811120C059C0222321F084B5836012
S11318D084BD03C084B5816084BD45BD809103038C
S11318E0882389F0E0E8F0E080818160808322230E
S11318F029F0E1E8F0E0808188608083E1E8F0E0AD
S11319008081842B808380910203882389F0E0E91D
S1131910F0E0808181608083222329F0E1E9F0E016
S1131920808188608083E1E9F0E08081842B80837A
S1131930DB01ED91FC911197E501F983E88312969F
S11319400D90BC91A02DBB83AA83EB018C819D815A
S1131950E5019D838C83EB016E817F81E5017F83AB
S11319606E83EB011882EC0118821C921082F5013F
S11319702187408781E082877894DF91CF911F91FE
S11319800F91FF90EF90DF90CF90BF90AF900895AC
S113199077239CF4DC011296ED91FC91139710824D
S11319A0ED91FC917195619571096F3F710519F085
S11319B014F06FEF70E060830895DC01ED91FC9109
S11319C0119710821296ED91FC9113976F3F710558
S11319D019F014F06FEF70E0608308957723ACF48E
S11319E0DC011696ED91FC91179710821496ED91F7
S11319F0FC9115977195619571096F3F710519F007
S1131A0014F06FEF70E060830895DC011496ED919B
S1131A10FC91159710821696ED91FC9117976F3FE4
S1131A20710519F014F06FEF70E0608308950F935F
S1131A301F93CF93DF93EC018A010E94C80CB80175
S1131A40CE010E94EE0CDF91CF911F910F9108956A
S1131A50CF93DF93DC011496ED91FC9115971696C4
S1131A600D90BC91A02D8FEF8C938083DF91CF914B
S1131A700895CF93DF93DC01ED91FC9111971296B9
S1131A800D90BC91A02D8FEF8C938083DF91CF912B
S1131A900895CF93DF93DC011496ED91FC91159793
S1131AA016960D90BC91A02D1C921082DF91CF91BF
S1131AB00895CF93DF93DC01ED91FC911197129679
S1131AC00D90BC91A02D1C921082DF91CF910895AE
S1131AD0FC012185211102C042E001C041E0FC016A
S1131AE0808590E0982F8827489F9001499F300D6A
S1131AF01124032E000C440B550B60EE7EE280E0B3
S1131B0090E00E946313822F089508955058BB27D4
S1131B10AA270E949E0D0C94EF0E0E94E10E38F04D
S1131B200E94E80E20F039F49F3F19F426F40C9437
S1131B30DE0E0EF4E095E7FB0C94D80EE92F0E941C
S1131B40000F58F3BA17620773078407950720F04C
S1131B5079F4A6F50C94220F0EF4E0950B2EBA2F0F
S1131B60A02D0B01B90190010C01CA01A00111249F
S1131B70FF27591B99F0593F50F4503E68F11A164B
S1131B80F040A22F232F342F4427585FF3CF4695DC
S1131B9037952795A795F0405395C9F77EF41F16FE
S1131BA0BA0B620B730B840BBAF09150A1F0FF0FC8
S1131BB0BB1F661F771F881FC2F70EC0BA0F621FB4
S1131BC0731F841F48F4879577956795B795F795A4
S1131BD09E3F08F0B0CF9395880F08F09927EE0F39
S1131BE09795879508950E94070E0C94EF0E0E9416
S1131BF0E80E58F00E94E10E40F029F45F3F29F00E
S1131C000C94D80E51110C94230F0C94DE0E0E94E8
S1131C10000F68F39923B1F3552391F3951B550BEA
S1131C20BB27AA2762177307840738F09F5F5F4FAB
S1131C30220F331F441FAA1FA9F335D00E2E3AF0EA
S1131C40E0E832D091505040E695001CCAF72BD002
S1131C50FE2F29D0660F771F881FBB1F2617370753
S1131C604807AB07B0E809F0BB0B802DBF01FF2785
S1131C7093585F4F3AF09E3F510578F00C94D80E7C
S1131C800C94230F5F3FE4F3983ED4F38695779545
S1131C906795B795F7959F5FC9F7880F911D96953E
S1131CA0879597F90895E1E0660F771F881FBB1F9A
S1131CB0621773078407BA0720F0621B730B840B47
S1131CC0BA0BEE1F88F7E09508950E946C0E689495
S1131CD0B1110C94230F08950E94080F88F09F57A8
S1131CE098F0B92F9927B751B0F0E1F0660F771F3C
S1131CF0881F991F1AF0BA95C9F714C0B13091F032
S1131D000E94220FB1E008950C94220F672F782FC0
S1131D108827B85F39F0B93FCCF3869577956795F6
S1131D20B395D9F73EF490958095709561957F4F62
S1131D308F4F9F4F0895E89409C097FB3EF4909508
S1131D408095709561957F4F8F4F9F4F9923A9F090
S1131D50F92F96E9BB279395F6958795779567951F
S1131D60B795F111F8CFFAF4BB0F11F460FF1BC063
S1131D706F5F7F4F8F4F9F4F16C0882311F096E9F6
S1131D8011C0772321F09EE8872F762F05C06623A4
S1131D9071F096E8862F70E060E02AF09A95660F5D
S1131DA0771F881FDAF7880F9695879597F9089516
S1131DB097F99F6780E870E060E008959FEF80ECFA
S1131DC0089500240A94161617061806090608959D
S1131DD000240A9412161306140605060895092E03
S1131DE00394000C11F4882352F0BB0F40F4BF2B72
S1131DF011F460FF04C06F5F7F4F8F4F9F4F0895B2
S1131E0057FD9058440F551F59F05F3F71F04795A7
S1131E10880F97FB991F61F09F3F79F0879508958C
S1131E20121613061406551FF2CF4695F1DF08C0AB
S1131E30161617061806991FF1CF869571056105C8
S1131E4008940895E894BB2766277727CB0197F970
S1131E5008950E94080FA8F19E57B0F1985160F0C0
S1131E6039F1983070F5092E9927660F771F881F6E
S1131E70991F0A94D1F71CC0BB27993F4CF4B111A8
S1131E80B1E0B62B672F782F8827985FB1F708C089
S1131E90869577956795B79508F4B1609395C1F7E2
S1131EA0BB0F30F411F460FF03C06F5F7F4F8F4F9F
S1131EB03EF490958095709561957F4F8F4F9F4F1D
S1131EC0089568940C94230F0C94220F0E94790FA8
S1131ED00C94EF0E0E94E10E38F00E94E80E20F000
S1131EE0952311F00C94D80E0C94DE0E11240C944E
S1131EF0230F0E94000F70F3959FC1F3950F50E0DC
S1131F00551F629FF001729FBB27F00DB11D639FA7
S1131F10AA27F00DB11DAA1F649F6627B00DA11D4D
S1131F20661F829F2227B00DA11D621F739FB00DF3
S1131F30A11D621F839FA00D611D221F749F332763
S1131F40A00D611D231F849F600D211D822F762FFC
S1131F506A2F11249F5750409AF0F1F088234AF0D9
S1131F60EE0FFF1FBB1F661F771F881F9150504045
S1131F70A9F79E3F510580F00C94D80E0C94230FC2
S1131F805F3FE4F3983ED4F3869577956795B795CC
S1131F90F795E7959F5FC1F7FE2B880F911D9695E6
S1131FA0879597F90895A3E1B0E0E9EDFFE00C947B
S1131FB0B6136C014B012A01FC011782168283813E
S1131FC081FF43C3AE014F5F5F4F3A01F601938136
S1131FD0F40193FD859193FF81914F01882309F4C6
S1131FE030C3853239F493FD859193FF81914F017C
S1131FF0853239F4B60190E00E944D165201250154
S1132000E5CF10E0F12C20E02032A0F48B3269F00F
S113201030F4803259F0833269F420612CC08D325F
S113202039F0803339F4216026C02260246023C053
S1132030286021C027FD27C030ED380F3A3078F4EE
S113204026FF06C0FAE01F9F300D1124132F13C082
S11320504AE0F49E300D1124F32E20620CC08E321F
S113206021F426FDEEC2206406C08C3611F42068EB
S113207002C0883641F4F40193FD859193FF819168
S11320804F018111C1CF9BEB980F933018F420615D
S1132090805E06C09BE9980F933008F071C12F7ED3
S11320A026FF16E02F73322E853619F42064322E63
S11320B008C0863621F4F22FF0683F2E02C01111B9
S11320C0115037FE07C01C3350F4EE24E394E10EA4
S11320D027E00BC0183038F027E017E005C027E0F0
S11320E04CE3E42E02C0212FE12C520144E0A40E63
S11320F0B11CF20160817181828193810E2DA30153
S11321000E942F152C01098100FF02C003FF07C0A4
S113211031FC08C032FE09C030E2232E07C02DE294
S1132120222E04C09BE2292E01C0212C802F8C700A
S113213019F0211068C2A8C237FE0FC0E40C04FFD6
S113214004C08A81813309F4EA941E1474F5F8E01A
S1132150FE1578F588E0E82E2CC036FC2AC0812FC5
S113216090E0841595059CF02CEF42162FEF520653
S113217074F0432D4068342E0AC0E2E0F0E0EC0F26
S1132180FD1FE10FF11D8081803319F411501111ED
S1132190F4CF37FE0EC0EE24E394E10E812F90E0DD
S11321A0481659062CF4141904C0EE24E39401C013
S11321B010E037FE06C01414150434F4C20101966D
S11321C005C085E090E002C081E090E02110019616
S11321D0112331F0212F30E02F5F3F4F820F931FE7
S11321E02F2D30E08217930714F4F81A01C0F12C54
S11321F0832D897049F4FF2039F0B60180E290E024
S11322000E944D16FA94F7CF222029F0B601822DB0
S113221090E00E944D1633FC09C0FF2039F0B6014E
S113222080E390E00E944D16FA94F7CF37FE5AC02F
S1132230942D852D57FE02C090E080E0292E382E83
S113224020E030E0A2014E1951095D874C87A201BC
S1132250421953095F874E87612F70E04427552741
S1132260461B570B598B488B5FEF2516350649F4EF
S1132270B6018EE290E02A8B3B8B0E944D163B897F
S11322802A89421453046CF04C855D85421553052C
S113229044F4EE85FF85E20FF31FE60DF71D8181FF
S11322A001C080E351E0251A31082F5F3F4F488970
S11322B05989241635064CF0B60190E02A8B3B8BE5
S11322C00E944D162A893B89CFCF2414350439F452
S11322D09A81963318F4953311F404FF81E3B6011F
S11322E090E04BC08A81813309F00F7EB60190E003
S11322F00E944D16111105C034FC18C085E690E00B
S113230017C0B6018EE290E00E944D1682E0EE24E2
S1132310E394E80EF301E80FF11D8081B60190E02B
S11323200E944D1611508E2D91F7E6CF85E490E072
S1132330B6010E944D1657FC05C04114510439F4EE
S113234004FF05C05194419451088DE201C08BE211
S1132350B60190E00E944D1680E39AE049165104BC
S11323602CF08F5F5AE0451A5108F7CFB60190E080
S11323700E944D16B601C201C0960E944D1657C167
S1132380833631F0833779F0833509F058C021C0A2
S11323905201E2E0AE0EB11CF2018081898301E0BA
S11323A010E0230114C05201F2E0AF0EB11CF2019F
S11323B04080518026FF03C0612F70E002C06FEFA0
S11323C07FEFC2012A8B0E9412168C012A892F7773
S11323D015C05201F2E0AF0EB11CF20140805180F1
S11323E026FF03C0612F70E002C06FEF7FEFC201D0
S11323F02A8B0E9407168C012A892068322E23FD1D
S11324001AC08F2D90E008171907A8F4B60180E2CE
S113241090E00E944D16FA94F4CFF20137FC8591B6
S113242037FE81912F01B60190E00E944D16F11004
S1132430FA94015011090115110579F7F8C0843691
S113244011F0893659F5520127FF09C0F4E0AF0EA7
S1132450B11CF20160817181828193810AC0F2E032
S1132460AF0EB11CF20160817181072E000C880B44
S1132470990B2F76322E97FF09C090958095709511
S113248061957F4F8F4F9F4F2068322E2AE030E0B6
S1132490A3010E94A816E82EE6183FC0022F853734
S11324A021F40F7E2AE030E01DC0097F8F3691F0C1
S11324B018F4883559F0C5C0803719F0883711F001
S11324C0C0C0006104FF09C0046007C024FF08C045
S11324D0066006C028E030E005C020E130E002C01C
S11324E020E132E0520107FF09C0F4E0AF0EB11C55
S11324F0F201608171818281938108C0F2E0AF0EA4
S1132500B11CF2016081718180E090E0A3010E941E
S1132510A816E82EE6180F77302E36FE0BC0332DA2
S11325203E7FE11650F434FE0AC032FC08C0332D5D
S11325303E7E05C00E2D332D03C00E2D01C0012F8C
S113254034FF0CC0FE01EE0DF11D8081803311F4C7
S1132550397E08C032FF05C00E5F04C0832F867821
S113256009F00F5F33FD13C030FF06C01E2D0F1599
S113257018F41F0D101B0F2D0F1568F4B60180E21F
S113258090E03B8B0E944D160F5F3B89F5CF0F15F2
S113259010F4F01A01C0F12C34FF12C0B60180E32C
S11325A090E03B8B0E944D163B8932FF17C031FDF2
S11325B003C088E790E002C088E590E0B6010CC053
S11325C0832F867859F031FF02C08BE201C080E28C
S11325D037FD8DE2B60190E00E944D16E11638F405
S11325E0B60180E390E00E944D161150F7CFEA94B3
S11325F0F301EE0DF11D8081B60190E00E944D16AD
S1132600E110F5CF14C0F4E0FF1558F584E0F81A92
S113261033FE1EC0211026C003FF2AC00CEA10E0BE
S1132620F32DF0713F2EF8018491811124C0FF2015
S113263009F4E5CCB60180E290E00E944D16FA94CC
S1132640F6CFF6018681978126C08FEF9FEF23C0D6
S1132650B60180E290E00E944D16FA94F110F8CF92
S1132660D9CFF12CB601822D90E00E944D16D4CF23
S113267000EB10E0D5CF31108052B60190E00E94FB
S11326804D160F5F1F4FCFCF23E02F1510F483E0BB
S1132690BECFF12CC1CF6396E2E10C94D213AA1BF6
S11326A0BB1B51E107C0AA1FBB1FA617B70710F039
S11326B0A61BB70B881F991F5A95A9F7809590956B
S11326C0BC01CD010895A1E21A2EAA1BBB1BFD017A
S11326D00DC0AA1FBB1FEE1FFF1FA217B307E407FD
S11326E0F50720F0A21BB30BE40BF50B661F771F55
S11326F0881F991F1A9469F7609570958095909535
S11327009B01AC01BD01CF010895052E97FB1EF47A
S113271000940E949C1357FD07D00E94631307FC8A
S113272003D04EF40C949C1350954095309521950C
S11327303F4F4F4F5F4F08959095809570956195E9
S11327407F4F8F4F9F4F08950E94F313B7FF089553
S1132750821B930B08950E94F313A59F900DB49FC1
S1132760900DA49F800D911D112408952F923F92E6
S11327704F925F926F927F928F929F92AF92BF928D
S1132780CF92DF92EF92FF920F931F93CF93DF9339
S1132790CDB7DEB7CA1BDB0B0FB6F894DEBF0FBE96
S11327A0CDBF09942A88398848885F846E847D84E3
S11327B08C849B84AA84B984C884DF80EE80FD80E5
S11327C00C811B81AA81B981CE0FD11D0FB6F8945B
S11327D0DEBF0FBECDBFED010895EE0FFF1F0590C4
S11327E0F491E02D0994A29FB001B39FC001A39F6F
S11327F0700D811D1124911DB29F700D811D112436
S1132800911D0895CF93DF938230910510F482E0F7
S113281090E0E0910703F091080320E030E0C0E08D
S1132820D0E0309711F14081518148175907C0F029
S11328304817590761F482819381209719F09B838B
S11328408A832BC0909308038093070326C0211525
S1132850310519F04217530718F49A01BE01DF013C
S1132860EF010280F381E02DDCCF2115310509F160
S1132870281B390B2430310590F412968D919C91CC
S113288013976115710521F0FB019383828304C0C2
S11328909093080380930703FD01329644C0FD0121
S11328A0E20FF31F81939193225031092D933C93AE
S11328B03AC02091050330910603232B41F4209163
S11328C00201309103013093060320930503209104
S11328D00001309101012115310541F42DB73EB7B6
S11328E04091040150910501241B350BE09105032F
S11328F0F0910603E217F307A0F42E1B3F0B2817F1
S1132900390778F0AC014E5F5F4F2417350748F064
S11329104E0F5F1F509306034093050381939193D9
S113292002C0E0E0F0E0CF01DF91CF9108950F9372
S11329301F93CF93DF93009709F48CC0FC01329767
S113294013821282009107031091080301151105E7
S113295081F420813181820F931F209105033091EE
S113296006032817390779F5F0930603E093050366
S113297071C0D80140E050E0AE17BF0750F4129682
S11329802D913C911397AD012115310509F1D90120
S1132990F3CF9D01DA013383228360817181860F35
S11329A0971F8217930769F4EC0128813981260F58
S11329B0371F2E5F3F4F318320838A819B8193830E
S11329C08283452B29F4F0930803E093070342C064
S11329D01396FC93EE931297ED01499159919E0140
S11329E0240F351FE217F30771F480819181840F5E
S11329F0951F029611969C938E93828193811396D0
S1132A009C938E931297E0E0F0E0D80112968D919A
S1132A109C911397009719F0F8018C01F6CF8D91D2
S1132A209C9198012E5F3F4F820F931F20910503C5
S1132A30309106032817390769F4309729F4109266
S1132A4008031092070302C0138212821093060334
S1132A5000930503DF91CF911F910F9108952830C2
S1132A6008F027E03327DA01990F311D87FD9160C3
S1132A7000966105710539F432602E5F3D9330E3B1
S1132A802A95E1F708959F3F30F08038710561057C
S1132A9009F03C5F3C5F3D93913008F08068911DE4
S1132AA0DF93CF931F930F93FF92EF92192F987F89
S1132AB09695E92F96959695E90FFF27E25FFE4FCD
S1132AC099273327EE24FF24A701E70105900894F2
S1132AD0079428F4360FE71EF81E491F511D660F90
S1132AE0771F881F991F0694A1F70590079428F46F
S1132AF0E70EF81E491F561FC11D770F881F991F27
S1132B00661F0694A1F70590079428F4F80E491F50
S1132B10561FC71FD11D880F991F661F771F069464
S1132B20A1F70590079420F4490F561FC71FD81F1B
S1132B30990F661F771F881F0694A9F78491109533
S1132B40177041F0D695C79557954795F794E79434
S1132B501A95C1F7E4EBF0E068941590159135915E
S1132B606591959105907FE27395E118F10A430B05
S1132B70560BC90BD009C0F7E10CF11E431F561FB9
S1132B80C91FD01D7EF4703311F48A95E6CFE89402
S1132B90015030F0080F0AF40027021708F4202F20
S1132BA02395022F7A3328F079E37D932A95E9F768
S1132BB010C07D932A9589F6069497956795379565
S1132BC017951794E118F10A430B560BC90BD0095A
S1132BD098F023957E9173957A3308F070E37C9393
S1132BE02013B8F77E9170617D9330F0839571E383
S1132BF07D9370E32A95E1F71124EF90FF900F91F4
S1132C001F91CF91DF91992787FD90950895FC013D
S1132C100590615070400110D8F7809590958E0F03
S1132C209F1F0895FC016150704001900110D8F776
S1132C30809590958E0F9F1F08954532510520F47D
S1132C40423010F00C942816FB011082CB01089539
S1132C50BB274A3031F4992322F4BDE29095819543
S1132C609F4F0C943416BB27FB015527AA27880FC6
S1132C70991FAA1FA41710F0A41B83955051B9F7EC
S1132C80A05DAA3308F0A95DA193009779F7B1116B
S1132C90B1931192CB010C9406170F931F93CF930A
S1132CA0DF93FB01238121FD03C08FEF9FEF28C039
S1132CB022FF16C04681578124813581421753076C
S1132CC044F4A081B1819D012F5F3F4F3183208364
S1132CD08C93268137812F5F3F4F3783268310C023
S1132CE0EB01092F182F0084F185E02D0995892B1C
S1132CF0E1F68E819F8101969F838E83812F902F91
S1132D00DF91CF911F910F910895AEE0B0E0EBE811
S1132D10F6E10C94C4130D891E8986E08C831A8312
S1132D2009838FEF9FE79E838D83AE01475E5F4FDC
S1132D306F89788DCE0101960E94D30F2F8138853B
S1132D40F801E20FF31F10822E96E4E00C94E013D6
S1132D50FA01AA27283051F1203181F1E8946F93C8
S1132D606E7F6E5F7F4F8F4F9F4FAF4FB1E03ED06E
S1132D70B4E03CD0670F781F891F9A1FA11D680F0C
S1132D80791F8A1F911DA11D6A0F711D811D911D3F
S1132D90A11D20D009F468943F912AE0269F1124B4
S1132DA03019305D3193DEF6CF010895462F477018
S1132DB0405D4193B3E00FD0C9F7F6CF462F4F7073
S1132DC0405D4A3318F0495D31FD4052419302D0D1
S1132DD0A9F7EACFB4E0A695979587957795679577
S1132DE0BA95C9F700976105710508959B01AC0177
S1132DF00A2E06945795479537952795BA95C9F79E
S1132E00620F731F841F951FA01D0895DC01FC0130
S1132E10672F71917723E1F7329704C07C916D930A
S1132E2070836291AE17BF07C8F30895F999FECF76
S1132E3092BD81BDF89A992780B50895262FF999F6
S1132E40FECF1FBA92BD81BD20BD0FB6F894FA9A89
S1132E50F99A0FBE0196089510E0C8EDD0E004C0C1
S1132E60FE010E94ED132196C93DD107C9F7F894DC
S1052E70FFCF8E
S1132E720000090320004700480088008A00040576
S1132E82060728307800306200252E336600252E8E
S1132E92346600252E356600252E31660056616C97
S1132EA26F7265732064652063616C696272616329
S1132EB2696F6E3A0009004C696E6520466F6C6C4E
S1132EC26F776572204E617473756B790046726513
S1132ED27175656E636961206D6F746F7265732DB0
S1132EE23E00204B687A00566F6C74616A652064F8
S1132EF26520626174657269612D3E0020566F6CB3
S1132F027473004F4B210043616C696272616E6499
S1132F126F2073656E736F7265732E2E2E00526569
S10B2F226164792E2E2E2100BA
S9030000FC
