S01300004E617473756B79436F64652E73726563A7
S11300000C94EC000C9414010C9414010C94140141
S11300100C9414010C9414010C9414010C94140108
S11300200C9414010C94BA080C9414010C9414014B
S11300300C9414010C9414010C9414010C941401E8
S11300400C9414010C9414010C9414010C941401D8
S11300500C94850F0C9414010C9414010C94140149
S11300600C9414010C9414010C9414010C941401B8
S11300700C9414010C9414010C9414010C941401A8
S11300800C9414010C9414010C9414010C940A0B98
S11300900C9414010C9414010C9414010C94140188
S11300A00C9414010C9414010C941401A40FA70FC4
S11300B0F60F2E10D710D710D710D710D710D7108F
S11300C0D710D710D710D710D710D71050109B10B7
S11300D0C4106E616E00696E660000407A10F35AB7
S11300E000A0724E18090010A5D4E80000E8764874
S11300F0170000E40B54020000CA9A3B000000E120
S1130100F505000080969800000040420F000000B2
S1130110A08601000000102700000000E803000092
S113012000006400000000000A000000000001005C
S1130130000000002C76D888DC674F0823DFC1DF7D
S1130140AE59E1B1B796E5E3E453C63AE651997680
S113015096E8E6C28426EB898C9B62ED407C6FFCBA
S1130160EFBC9C9F40F2BAA56FA5F490055A2AF7FC
S11301705C936B6CF9676DC11BFCE0E40D47FEF505
S113018020E6B500D0ED902E03009435770500806D
S1130190841E080000204E0A000000C80C333333CC
S11301A0330F986E12831141EF8D2114893BE6556C
S11301B016CFFEE6DB18D1844B381BF77C1D901D4F
S11301C0A4BBE424203284725E228100C9F124ECB1
S11301D0A1E53D2705110E1111241FBECFEFDAE072
S11301E0DEBFCDBF13E0A0E0B1E0E4ECF9E302C070
S11301F005900D92A831B107D9F724E0A8E1B3E046
S113020001C01D92AB34B207E1F710E0CBEED0E0B1
S113021004C02197FE010E942019CA3ED107C9F7E4
S11302200E94A60D0C94D51C0C940000FC011582B0
S11302301482168284E087830895CF92DF92EF922E
S1130240FF920F93CF93DF93EC017B01EAE7F0E099
S113025010826CE770E0DB011C920F2EFBE7CF2EBF
S1130260D12CF02DD6011C92908196609083DB01F5
S11302709C9190649C939081906890836EE770E069
S1130280DB019C91906F9C9395B7906895BF95B74F
S1130290906895BF908190689083D6011C9290815C
S11302A0906490831B821A82198218824E832F8352
S11302B08C819D81892B31F4842F90E00E947E19DA
S11302C09D838C838E81882389F090E0292F30E0F0
S11302D0F701E20FF31F80814C815D81FA01E20F87
S11302E0F31F80839F5F8E81981780F380B38C7F88
S11302F080BB87B18F7387B9083058F481E0002E32
S113030001C0880F0A94EAF7E4E2F0E0A5E2B0E065
S113031045C0003160F481E098EF900F01C0880F70
S11303209A95EAF7EAE2F0E0ABE2B0E037C00631D2
S1130330D0F4802F90E09C01205131092230310506
S113034044F02E5F3F4F81E001C0880F2A95EAF701
S113035005C081E001C0880F2A95EAF7E0E3F0E0E8
S1130360A1E3B0E01BC0083160F481E090EF900F8E
S113037001C0880F9A95EAF7E7E2F0E0A8E2B0E05E
S11303800DC0083131F480E4EDE2F0E0AEE2B0E01B
S113039005C080E0E0E0F0E0A0E0B0E09C91282F10
S11303A0209592239C939081892B80830A87DF91E7
S11303B0CF910F91FF90EF90DF90CF900895AF927F
S11303C0BF92CF92DF92EF92FF920F931F93CF933E
S11303D0DF93EC018B018C819D81892B09F483C00F
S11303E08E81882309F47CC080E0E82FF0E0EE0FD2
S11303F0FF1FE00FF11F118210828F5F9E8189170A
S1130400A0F38F8181113EC04FC09A2D921788F5B9
S1130410C92ED12C2C813D812C0D3D1DD9013C913F
S1130420383030F03850DB012C9120622C9304C01A
S1130430DB012C912F7D2C93DA018C932C91232BAF
S11304402C932081206C2083208124FFFDCF2081E8
S11304502F772083D7012D913C91D601AA0FBB1F82
S1130460A00FB11FCD90DC9011972C0D3D1D2D9345
S11304703C939F5F2E81921748F2B3949F81B916E3
S113048078F012C0B12CA12C4CE750E080E4EAE7EC
S1130490F0E00F2EF8E7EF2EF12CF02D6BE770E073
S11304A02E812111B2CFE9CF8E818823E1F020E0A3
S11304B0E22FF0E0EE0FFF1FE00FF11F6F8170E0FD
S11304C0AB015595479580819181840F951F0E94BA
S11304D0CB18718360832F5F8E81281748F303C084
S11304E08F818111CFCFDF91CF911F910F91FF9019
S11304F0EF90DF90CF90BF90AF9008952F923F92EE
S11305004F925F926F927F928F929F92AF92BF921F
S1130510CF92DF92EF92FF920F931F93CF93DF93CB
S1130520CDB7DEB728970FB6F894DEBF0FBECDBFA8
S11305307C014DB75EB75E834D832DB63EB6DC01BC
S113054016962C91822F90E0880F991FEDB7FEB775
S1130550E81BF90B0FB6F894FEBF0FBEEDBF4DB705
S11305605EB74F5F5F4F2A01ADB7BEB7A81BB90B8B
S11305700FB6F894BEBF0FBEADBFEDB7FEB7319650
S1130580FA83E98399808A804DB75EB7481B590B7B
S11305900FB6F8945EBF0FBE4DBF8DB79EB70196E0
S11305A09C838B83DB80CC80D7018D919C91892B9C
S11305B031F5822F90E0880F991F0E947E19F70170
S11305C091838083892B09F4D3C086818823B9F071
S11305D020E030E0D701C901880F991FED91FC910B
S11305E01197E80FF91F118210822F5F3F4F169663
S11305F08C91169790E0281739076CF37D01D70189
S113060012968D919C911397892B09F0B7C0169679
S11306108C9190E0880F991F0E947E19F7019383B3
S11306208283892B09F4A4C08681882309F4A6C097
S113063020E030E04FEF53E0D701C901880F991F44
S11306401296ED91FC911397E80FF91F51834083A3
S11306502F5F3F4F16968C91169790E02817390715
S113066064F37D018BC0B201C5010E94DF01D50195
S11306701696EC90F12C1E141F04A4F58D2D9C2DC0
S1130680F201A92DB82D272D362DAD0198878F8322
S1130690CA010115110509F47DC0DC016D917C913D
S11306A0408151816417750708F46EC0AF81B88525
S11306B06D917C91408151814617570730F44081F8
S11306C05181AF81B8854D935C932F5F3F4F4F812C
S11306D058854E5F5F4F58874F83329602962E158A
S11306E03F05BCF20F5F1F4F0A30110509F0BBCF65
S11306F0D50116968C918823A9F16B817C81A981FF
S1130700BA8120E030E0AD01D501FB0101911191E6
S1130710BF01C901880F991FED91FC911197E80F52
S1130720F91FE080F180E016F10610F411830083D4
S1130730FA0101911191AF011296ED91FC91139779
S1130740E80FF91F808191810817190710F41183AC
S113075000832F5F3F4F16968C91169790E02817D1
S113076039079CF20FB6F8943EBE0FBE2DBE18C0DA
S11307700FB6F8943EBE0FBE2DBE12C000E010E0CE
S1130780712C612C57016FCF40815181DC014D9355
S11307905C938CCF40815181DC014D935C938FCF6E
S11307A0ED81FE810FB6F894FEBF0FBEEDBF289613
S11307B00FB6F894DEBF0FBECDBFDF91CF911F916E
S11307C00F91FF90EF90DF90CF90BF90AF909F90EC
S11307D08F907F906F905F904F903F902F900895EF
S11307E0AF92BF92CF92DF92EF92FF920F931F933B
S11307F0CF93DF938C01D62FC72F0E94DF01D8013E
S113080016968C91882309F458C0ED2EFC2EC0E076
S1130810D0E0C12CD12C0F2EF8EEAF2EF02D0F2EE0
S1130820F3E0BF2EF02DD8011296ED91FC911397B1
S11308309E01220F331FE20FF31F808191814D919E
S11308405C91FA01E20FF31F20813181F901E81B69
S1130850F90BC1F0D7012D913C91A90160E070E042
S11308609A01AB01281B390B41095109A8EEB3E0E9
S11308700E942D199F0140E050E00E940119922F1F
S1130880832F02C09C2D8D2D292F382F293EB3E0B4
S11308903B0714F02A2D3B2D332314F42C2D3D2D2E
S11308A0F701219331937F012196D80116968C91FB
S11308B090E0C817D9070CF4B6CFDF91CF911F9100
S11308C00F91FF90EF90DF90CF90BF90AF9008957D
S11308D02F923F924F925F926F927F928F929F924C
S11308E0AF92BF92CF92DF92EF92FF920F931F933A
S11308F0CF93DF9300D000D0CDB7DEB79A8389833E
S11309005B016A012B830E94F003E981FA8126804E
S1130910312CA1014E5F5F4F80E090E0E12CF12C7F
S1130920412C512C3201912C1C82E0E0F0E008EEC5
S113093013E0812C12C0FC81F43060F4E22FF0E06B
S1130940E150F048EE0FFF1FEA0DFB1D0190F0810E
S1130950E02D02C0E0E0F82D2C832C81222319F035
S1130960253021F006C079995AC055C0379957C02F
S113097052C03B81332349F004C0E0E0F82D01C0AC
S1130980F80198012E1B3F0BF901ED33F10510F02E
S113099099249394CE16DF0680F4809FD001819F22
S11309A0B00D909FB00D11249F010E942619460E90
S11309B0571E681E791EEE0EFF1E2C812F5F822F9C
S11309C090E0841795070CF4B6CF911014C03FEF54
S11309D0231A330A28EE33E0229EC001239E900D91
S11309E0329E900D1124E981FA81208531852817E2
S11309F0390774F01BC0970140E050E0C301B20115
S1130A000E94DF18C901E981FA81318720870EC06D
S1130A1080E090E00BC0FB81F111AFCFCECF2B81F2
S1130A202111AECFF80199249394B4CF0F900F9075
S1130A300F900F90DF91CF911F910F91FF90EF9046
S1130A40DF90CF90BF90AF909F908F907F906F90EA
S1130A505F904F903F902F900895FC0192859F3FA7
S1130A6009F463C0983050F481E001C0880F9A956E
S1130A70EAF7E4E2F0E0A5E2B0E043C0903158F4D4
S1130A80985081E001C0880F9A95EAF7EAE2F0E015
S1130A90ABE2B0E036C09631D0F4892F90E09C01EF
S1130AA0205131092230310544F02E5F3F4F81E05F
S1130AB001C0880F2A95EAF705C081E001C0880FBC
S1130AC02A95EAF7E0E3F0E0A1E3B0E01AC0983138
S1130AD058F4905181E001C0880F9A95EAF7E7E253
S1130AE0F0E0A8E2B0E00DC0983131F480E4EDE22A
S1130AF0F0E0AEE2B0E005C080E0E0E0F0E0A0E0CD
S1130B00B0E06F3F21F49C9198279C930BC066231F
S1130B1021F09C91982B9C9305C09C91282F2095A3
S1130B2092239C939081892B808308955F926F9286
S1130B307F928F929F92AF92BF92CF92DF92EF9269
S1130B40FF920F931F93CF93DF93FC012281338194
S1130B50232B09F44EC02681222309F44AC04C01F8
S1130B606894EE24E1F8F12CC12CD12C3601660CEA
S1130B70771C870102501109F401A080B180A60CF2
S1130B80B71CE701F50151905F01C8010E94BF1C29
S1130B90581621F0652DC8010E94C71C0F5F1F4F16
S1130BA00C171D0779F7F40102811381060D171D37
S1130BB05701F2E0AF0EB11CF80171908F01CE0124
S1130BC00E94BF1C781621F0672DCE010E94C71C1D
S1130BD02196AC16BD0681F7FFEFCF1ADF0A84E039
S1130BE0E80EF11CF401868190E0C816D9060CF4D5
S1130BF0BDCFDF91CF911F910F91FF90EF90DF90C8
S1130C00CF90BF90AF909F908F907F906F905F90A8
S1130C100895AF92BF92CF92DF92EF92FF920F931B
S1130C201F93CF93DF936C01DC018D919C911197FD
S1130C30892B29F516968C9190E0880F991F0E94B4
S1130C407E19F60191838083892B09F48AC08681F9
S1130C50882309F481C080E090E09C01220F331FB7
S1130C60D601ED91FC911197E20FF31F11821082CE
S1130C70019616962C9130E08217930774F3F601CF
S1130C8082819381892B31F0D60116968C91811142
S1130C902DC067C0F601868190E0880F991F0E94DD
S1130CA07E19D60113969C938E931297892B09F47F
S1130CB058C016968C91882309F453C080E090E0C4
S1130CC04FEF53E09C01220F331FD6011296ED9192
S1130CD0FC911397E20FF31F5183408301961696FC
S1130CE02C9130E0821793076CF3CECFC0E0D0E0B4
S1130CF0A12CB12C8501000F111FF601E080F180B9
S1130D00E00EF11ECE010E94BF1CD7018C93CE01D0
S1130D1001960E94BF1CF7018183D60112968D9122
S1130D209C911397080F191FCE0102960E94BF1CB5
S1130D30F8018083CE0103960E94BF1CD80111964E
S1130D408C93BFEFAB1ABB0A2496F601868190E020
S1130D50A816B9067CF205C082819381892B09F417
S1130D6099CFDF91CF911F910F91FF90EF90DF907A
S1130D70CF90BF90AF900895CF93DF93EC018A8119
S1130D809B810E94131A8C819D810E94131A888171
S1130D9099810E94131ADF91CF9108950F931F93A5
S1130DA0DC01CB01880F991FAA1FBB1F880F991F55
S1130DB0AA1FBB1F9C01AD01220F331F441F551FE7
S1130DC0220F331F441F551F60E07BE187EB90E047
S1130DD00E94DF18CA01B9016150710981099109A2
S1130DE00E94F3130E94A514072F182F292F3327CD
S1130DF027FD3A950093CD006093CC0088E1809361
S1130E00C9008EE08093CA001F910F910895E8EC09
S1130E10F0E0908195FFFDCF8093CE000895E8EC3B
S1130E20F0E080818823ECF78091CE0008958091D2
S1130E30C800881F8827881F0895CF93DF93EC018B
S1130E408881882331F021960E94070789918111B6
S1130E50FBCFDF91CF910895CF93C42F442369F042
S1130E60242F30E04CE753E00E94AF1B95B181E0A2
S1130E70892785B9C03181F40AC02AE04CE753E0E0
S1130E800E94BA1B95B181E0892785B90BC083E123
S1130E9091E00E941D0706C0C23021F486E191E072
S1130EA00E941D078CE793E00E941D07289ACF91AA
S1130EB0089535B121E0232725B90E941D07289AFA
S1130EC08AE00E94070708954430E1F0453089F133
S1130ED0433009F045C09F938F937F936F9389E1CB
S1130EE091E09F938F938CE793E09F938F930E945D
S1130EF02E1C8DB79EB708960FB6F8949EBF0FBEF2
S1130F008DBF44C09F938F937F936F938EE191E045
S1130F109F938F938CE793E09F938F930E942E1C53
S1130F208DB79EB708960FB6F8949EBF0FBE8DBFBF
S1130F302DC09F938F937F936F9383E291E09F9350
S1130F408F938CE793E09F938F930E942E1C8DB711
S1130F509EB708960FB6F8949EBF0FBE8DBF16C0FD
S1130F609F938F937F936F9388E291E09F938F93E6
S1130F708CE793E09F938F930E942E1C8DB79EB7AE
S1130F8008960FB6F8949EBF0FBE8DBF8CE793E012
S1130F900E941D070895CF93C62F662369F0462F3C
S1130FA050E06CE773E00E94991B95B181E08927BA
S1130FB085B9C03181F40AC04AE06CE773E00E944D
S1130FC0A41B95B181E0892785B90BC083E191E029
S1130FD00E941D0706C0C23021F486E191E00E9400
S1130FE01D078CE793E00E941D07289ACF9108956E
S1130FF0CF93C62F662369F0462F50E06CE773E069
S11310000E94991B95B181E0892785B9C03181F48B
S11310100AC04AE06CE773E00E94A41B95B181E02A
S1131020892785B90BC083E191E00E941D0706C0A2
S1131030C23021F486E191E00E941D078CE793E021
S11310400E941D07289ACF9108950E94F8078AE00C
S11310500E9407070895CF93DF93EAE7F0E0108238
S1131060ACE7B0E01C92CBE7D0E0188280818660C8
S113107080838C9180648C93808180688083AEE7C8
S1131080B0E08C91806F8C9385B7806885BF85B7FD
S1131090806885BF808180688083188280818064B5
S11310A08083DF91CF910895883058F491E001C096
S11310B0990F8A95EAF7892FE4E2F0E0A5E2B0E01F
S11310C044C0803160F498EF980F81E001C0880F2C
S11310D09A95EAF7EAE2F0E0ABE2B0E036C0863196
S11310E0C8F490E09C01205131092230310544F0CC
S11310F02E5F3F4F81E001C0880F2A95EAF705C0B3
S113110081E001C0880F2A95EAF7E0E3F0E0A1E36B
S1131110B0E01BC0883160F490EF980F81E001C00B
S1131120880F9A95EAF7E7E2F0E0A8E2B0E00DC094
S1131130883131F480E4EDE2F0E0AEE2B0E005C0E5
S113114080E0E0E0F0E0A0E0B0E06F3F21F49C91AB
S113115098279C930BC0662321F09C91982B9C9319
S113116005C09C91282F209592239C939081892BD4
S1131170808308951F920F920FB60F9211242F931C
S11311803F934F935F936F937F938F939F93AF930B
S1131190BF93EF93FF9380917B03811111C01C993E
S11311A03CC080915603811126C037C04E9B38C085
S11311B054C04E9955C01C9B74C04E9B6DC071C0E9
S11311C01C996FC010927B0360E083E493E00E945B
S11311D02D0588E393E00E94A5122FE78DE89BE597
S11311E0215080409040E1F700C0000088E393E084
S11311F00E94CD1256C061E083E493E00E942D0565
S11312002FEF82E597E0215080409040E1F700C045
S1131210000081E080937B03CECF1C9BC7CF1DC011
S113122081E48093610381E080936303E4E6F0E06A
S113123080818D7F8083E5E6F0E080818E7F8083EE
S1131240EBE6F0E080818F7E8083E8E6F0E0808149
S11312508E7F808310925603AECF1C9BAACFABCF58
S11312602898209A82E48093610383B78E7F83BF9A
S1131270EBE6F0E080818F7E8083E8E6F0E0808119
S11312808E7F80832FEF8EE994E22150804090403E
S1131290E1F700C000008FCF1092560383E48093DF
S11312A06103FF91EF91BF91AF919F918F917F91D6
S11312B06F915F914F913F912F910F900FBE0F90BF
S11312C01F901895ECE7F0E010828081806880839D
S11312D080818064808380818F7E80838081877F0A
S11312E08083808184608083808182608083808128
S11312F081608083EAE7F0E01082808180688083E7
S1131300808183608083ABE7B0E01C928C91806223
S11313108C93808180648083808186FDFDCF809161
S113132078002091790090E0922B8A5191400895A1
S11313300F931F93CF93DF935498EDE7F0E08081F0
S11313408160808310925E0310925D0310925903B2
S113135010925A0310925B0310925C032FE789EA00
S113136093E0215080409040E1F700C0000044E049
S11313700BE710E0ACE7B0E050E4EAE7F0E028E780
S113138030E0E8018881806288835C938C918C933F
S11313908081806C8083808184FFFDCF80818F7702
S11313A08083E9018881998160915D0370915E0376
S11313B0860F971F90935E0380935D038FE295E7FA
S11313C00197F1F700C000004150D9F660915D0328
S11313D070915E03769567957695679570935E0335
S11313E060935D0380E090E00E94F31323E333E312
S11313F043E550E40E94E21420E030EC4FE754E46B
S11314000E944B1329E937EA4FE85EE30E944B132D
S11314106093590370935A0380935B0390935C0326
S1131420DF91CF911F910F910895CF93C1E012C026
S11314300E940F0790912903E92FF0E0EB59FC4F2C
S113144080839F5F909329038A3021F4C0936403BF
S1131450109229030E9417078111EACFCF910895B2
S1131460CF92DF92EF92FF92CF93DF936091570375
S113147070915803681B790B7093280360932703BA
S11314808091250390912603EB01C81BD90BD093BF
S11314902403C0932303072E000C880B990B0E948E
S11314A0F5132CE93FE44DE75DE30E94E2146B0180
S11314B07C01BE01DD0F880B990B0E94F51328E80F
S11314C031E04EE050E40E94E2149B01AC01C701FC
S11314D0B6010E94DA120E94BD139B01709322038D
S11314E0609321038091120190E08217930744F4E2
S11314F08091120190E0909322038093210313C002
S11315008091120190E091958195910928173907EE
S113151054F48091120190E09195819591099093F2
S11315202203809321036091210370912203772386
S113153064F4409112018091120150E0680F711D12
S113154088E393E00E9454120DC0409112018091EF
S1131550120150E0461B570B682F70E088E393E0BC
S11315600E9454121092200310921F0360912703CB
S113157070912803693687EF7807D4F465328AEFCF
S113158078074CF4062E672F000C661F770B000CAF
S1131590661F771F04C0660F672F661F770B709353
S11315A0200360931F0388E393E00E94051223C085
S11315B0683988E07807FCF06C3D85E0780764F0D2
S11315C0062E672F000C661F770B000C661F771F13
S11315D071956195710907C0660F672F661F770BB8
S11315E07195619571097093200360931F0388E3DB
S11315F093E00E942B1280912703909128039093EB
S1131600260380932503DF91CF91FF90EF90DF9025
S1131610CF9008951F920F920FB60F9211248F93BB
S11316209F93AF93BF93EF93FF9388E89FEF9093BB
S113163095008093940080911E038F5F843619F087
S113164080931E0315C010921E0380916F03909126
S11316507003A0917103B09172030196A11DB11D95
S113166080936F0390937003A0937103B0937203FC
S113167080917B03882309F481C04D9B74C0E09161
S11316800A01F0910B018081882309F467C06BC0C3
S11316908091730390917403A0917503B0917603C4
S11316A00196A11DB11D8093730390937403A093BD
S11316B07503B093760380911C038F5F80931C03A2
S11316C081E080931D031A9B56C0E0910601F091BE
S11316D007018081882309F449C04DC080917703B4
S11316E090917803A0917903B0917A030196A11D9A
S11316F0B11D8093770390937803A0937903B093FB
S11317007A0380911A038F5F80931A0381E0809398
S11317101B0380911A038A3130F4811115C0909112
S11317201C039A3188F090911C03891B8093190340
S1131730883018F01092180303C081E080931803D6
S113174010921A0310921C0380911803882319F035
S11317505F9A289A13C028985F9810C080911D033F
S11317608111B1CF95CF10921D03ADCF80911B0392
S11317708111CFCFB3CF10921B03CBCFFF91EF9149
S1131780BF91AF919F918F910F900FBE0F901F90BB
S11317901895CF93DF938DE291E00E945907109240
S11317A0600310925F0380E090E0C3E4D3E0880F0D
S11317B0991FE881F981E80FF91F60E08081918128
S11317C00E94CB0785E491E00E941D0780915F038E
S11317D09091600301969093600380935F0384303B
S11317E0910528F385E491E00E9459071092600363
S11317F010925F0380E090E0C3E4D3E0880F991F68
S1131800EA81FB81E80FF91F60E0808191810E94E9
S1131810CB0785E491E00E941D0780915F039091BE
S1131820600301969093600380935F038430910575
S113183028F385E491E00E945907DF91CF91089540
S113184080915603811110C05F9A579A2898209A64
S113185083E493E00E9409068091630381110E944E
S1131860C90B81E08093560308955F9A579A289A8A
S1131870209A61E083E493E00E942D058091630344
S11318808823C1F187E491E00E9459071092600314
S113189010925F038BB180588BB9579A83E493E01D
S11318A00E947E0287EC9FEA0197F1F700C00000D6
S11318B080915F03909160030196909360038093FD
S11318C05F038035910530F35F98579A289A209AE0
S11318D060E083E493E00E942D0581E08093560349
S11318E08091630381110E94C90B83E493E00E94F9
S11318F0960508951092600310925F03CBCF0F9367
S1131900CF93DF93E4E6F0E080818E7F808308E16B
S113191024E044E06EE071E083E493E00E941D0162
S113192021E041E066E071E088E393E00E941A114F
S113193060E083E493E00E942D055F98579A5D9AD6
S1131940559A80916103823409F4BFC0833409F449
S1131950BFC0813409F0C6C05F9A579A5D98559A02
S113196060E076E980E090E00E94CE068EE591E0AA
S11319700E9459078CE791E00E94590782E991E09F
S11319800E941D0781EB91E00E9459078DEB91E0C5
S11319900E941D0783EC91E00E9459078CEC91E0B2
S11319A00E94590789EE91E00E941D07109260037E
S11319B010925F030E946209909333038093320371
S11319C08FE295E70197F1F700C0000080915F0373
S11319D09091600301969093600380935F03843633
S11319E0910540F360E080913203909133030E94AB
S11319F0F80782E092E00E945907809132039091A7
S1131A003303869724F085E092E00E945907EAE7C1
S1131A10F0E01082ACE7B0E01C92CBE7D0E0188293
S1131A208081866080838C9180648C9380818068BF
S1131A308083AEE7B0E08C91806F8C9385B780682B
S1131A4085BF85B7806885BF808180688083188260
S1131A508081806480830E94980989E192E00E94D9
S1131A601D076091590370915A0380915B03909113
S1131A705C0343E00E9464078EE292E00E945907EF
S1131A8081E392E00E941D0788E393E00E94B01274
S1131A9060E090E00E94F80786E492E00E94590713
S1131AA08BE492E00E941D0760E08FE290E00E94C8
S1131AB0F80789E592E00E945907F89481E0809341
S1131AC06F007894809363030DC00E94200C0AC0B9
S1131AD0289A209A5F9A579A03C04E9B0E94350C0D
S1131AE01C99FBCFDF91CF910F910895EBE6F0E0C5
S1131AF0808180618083E8E6F0E08081816080837A
S1131B0083B7817F866083BFE4E6F0E080818160F3
S1131B108083808180688083A5E6B0E08C918068B2
S1131B208C938081826080838C9181608C93F89403
S1131B3083B7816083BF789488950E947F0C83B7B4
S1131B408E7F83BF559822986E9A089524982C9A74
S1131B5056985E9A0E942B081092600310925F03BD
S1131B600E9498098FE697E10197F1F700C0000001
S1131B7080915F039091600301969093600380933A
S1131B805F030A9768F310927B0360E08FE00E9482
S1131B90540861E080E00E9454082AE939E949E7E1
S1131BA050E46091590370915A0380915B039091C2
S1131BB05C030E94461318168CF061E08FE00E94CB
S1131BC0540860E080E00E9454089FE72DE88BE50C
S1131BD0915020408040E1F700C000000E94760D43
S1131BE060E08FE00E94540861E080E00E945408A5
S1131BF0F89424982C9A80916303811114C0EBE625
S1131C00F0E0808180618083E8E6F0E0808181609B
S1131C1080839FEF2EE984E2915020408040E1F7D9
S1131C2000C000000CC010926203EBE6F0E080817B
S1131C308F7E8083E8E6F0E080818E7F808310923F
S1131C409000E1E9F0E0808181608083E1E7F0E0E9
S1131C5080818160808388E89FEF909395008093D2
S1131C6094001092770310927803109279031092E3
S1131C707A031092730310927403109275031092F6
S1131C80760310926F0310927003109271031092F6
S1131C907203789461E083E493E00E942D0580E56B
S1131CA08093120181E080937B03C1E7D0E018E7C1
S1131CB080917B03882309F4DEC080915603882336
S1131CC009F4D9C080916103813409F0D9C0D3C02B
S1131CD080916F0390917003A0917103B09172038E
S1131CE087339140A105B10508F4D9C020E04CE345
S1131CF050E06EE473E083E493E00E946804909300
S1131D0058038093570384EC99E00E94300A64C01E
S1131D1080916103813409F0C5C05EC080911201D5
S1131D20811106C04DC088E393E00E94CD1254C0D7
S1131D3061E083E493E00E942D0580916F0390910C
S1131D407003A0917103B0917203409134035091D8
S1131D5035036091360370913703841B950BA60BF2
S1131D60B70B883C9105A105B105A8F0809112013B
S1131D708A508093120180916F0390917003A09117
S1131D807103B09172038093340390933503A0934D
S1131D903603B093370320E04CE350E06EE473E085
S1131DA083E493E00E94680490935803809357035C
S1131DB084EC99E00E94300A809112018111B8CF1D
S1131DC088818E7F888360E083E493E00E942D0500
S1131DD088E393E00E94CD1280916303882309F481
S1131DE067CF80916203882309F462CF80917B03DB
S1131DF081115ECF5CC0880F991FFC01E25BFC4F30
S1131E0060E0808191810E94CB0785E491E00E948B
S1131E101D0780915F039091600301969093600386
S1131E2080935F038430910530F386B1881F88273F
S1131E30881F60E090E00E94F80785E491E00E942A
S1131E401D0786B160E086FB882780F990E00E9438
S1131E50F80760E070E080915703909158030E9466
S1131E6025088FE79FE422E1815090402040E1F76C
S1131E7000C000001DCF80917B038111ADCF48CFFE
S1131E8080916F0390917003A0917103B0917203DC
S1131E908C329140A105B10508F01ACF27CF1093D9
S1131EA0120124CF80916303811138CF3CCF61E0CC
S1131EB083E493E00E942D0520E04CE350E06EE4BF
S1131EC073E083E493E00E94680490935803809342
S1131ED057038FB160E0817090E00E94F80785E4B9
S1131EE091E00E941D078FB160E08695817090E0BB
S1131EF00E94F80785E491E00E941D071092600398
S1131F0010925F0380E090E076CF1F920F920FB69D
S1131F100F9211242F933F934F935F936F937F936B
S1131F208F939F93AF93BF93CF93DF93EF93FF93DD
S1131F300E94150A80916403882309F453C1809197
S1131F40630381113EC14EC10E94350C30C1EAE7E2
S1131F50F0E01082ACE7B0E01C92CBE7D0E018824E
S1131F608081866080838C9180648C93808180687A
S1131F708083AEE7B0E08C91806F8C9385B78068E6
S1131F8085BF85B7806885BF80818068808318821B
S1131F908081806480831092600310925F030E94AA
S1131FA098098FE295E70197F1F700C0000080914E
S1131FB05F039091600301969093600380935F03A5
S1131FC0059768F38BE592E00E941D076091590321
S1131FD070915A0380915B0390915C0343E00E94EB
S1131FE064078EE292E00E945907E1C081E692E024
S1131FF00E941D0760E070E080E590E00E942508E3
S11320008FE692E00E941D0760E070E088E790E0B0
S11320100E94250889E792E00E941D0760E070E0B5
S113202086E990E00E94250886E892E00E9459071C
S1132030C1E0C0937B031092610361E083E493E009
S11320400E942D05C09363039FEFAEE9B4E2915063
S1132050A040B040E1F700C00000A9C010926003A6
S113206010925F030E94620960E00E94F80782E018
S113207092E00E9459072FE78FE492E121508040BB
S11320809040E1F700C0000080915F0390916003ED
S113209001969093600380935F03079718F387C0BA
S11320A0E1E7F0E080818E7F8083809177039091D7
S11320B07803A0917903B0917A0380932E039093CF
S11320C02F03A0933003B093310380917303909155
S11320D07403A0917503B091760380932A039093BF
S11320E02B03A0932C03B0932D0380818160808304
S11320F081E992E00E941D0760912A0370912B03ED
S113210080912C0390912D0340E00E942C078FE9CD
S113211092E00E941D0760912E0370912F0380911D
S113212030039091310340E00E942C078FEA91E044
S11321300E9459073CC080917B03882329F08DEAD3
S113214092E00E94590719C083EC92E00E9459075B
S113215080E58093120110926F0310927003109225
S1132160710310927203E1E7F0E080818160808363
S113217061E083E493E00E942D0590917B0381E06C
S1132180892780937B0313C080916203811105C06A
S11321908AED92E00E94590704C085EF92E00E9404
S11321A059079091620381E08927809362038AE052
S11321B0E5E6F3E0DF011D928A95E9F710926403E6
S11321C011C084E193E00E945907E09165038E2FCA
S11321D090E0FC01F197E331F10548F7EA5AFF4F2B
S11321E00C942019FF91EF91DF91CF91BF91AF91A2
S11321F09F918F917F916F915F914F913F912F911B
S11322000F900FBE0F901F90189583E493E00E94E7
S1132210160188E393E00E941711089588E393E080
S11322200E94D81283E493E00E94BC060895FC0146
S113223012860895AF92BF92CF92DF92EF92FF92EF
S11322400F931F93CF93DF935C01F894DC011A96EC
S11322501C92109290001092800014BC1092910075
S11322601092810015BCDB018B01085F1F4F31E028
S11322706894EE24E7F8F12C0F2EF0E9CF2ED12C40
S1132280F02DFD018D919C9111978734910539F4BE
S113229084B5806C84BD2F98279A3093460480813E
S11322A091818834910539F484B5806384BD58984C
S11322B0509A30934604808191818838910541F485
S11322C0E7018881806C88832D98259A3093450492
S11322D0808191818A38910541F4E7018881806386
S11322E088832E98269A30934504808191818C3876
S11322F0910541F42F98279AE70188818C6088839F
S1132300309345041296808191818839910541F476
S113231046983E9AF6018081806C80833093440411
S1132320A017B10709F0ADCF80914604811109C00F
S113233080914504811113C080914404811120C00F
S113234059C0222321F084B5836084BD03C084B5C1
S1132350816084BD45BD80914504882389F0E0E80F
S1132360F0E0808181608083222329F0E1E8F0E0BD
S1132370808188608083E1E8F0E08081842B808321
S113238080914404882389F0E0E9F0E08081816051
S11323908083222329F0E1E9F0E080818860808352
S11323A0E1E9F0E08081842B8083DB01ED91FC91F5
S11323B01197E501F983E88312960D90BC91A02D45
S11323C0BB83AA83EB018C819D81E5019D838C8372
S11323D0EB016E817F81E5017F836E83EB011882BF
S11323E0EC0118821C921082F5012187408781E05C
S11323F082877894DF91CF911F910F91FF90EF9096
S1132400DF90CF90BF90AF90089577239CF4DC01C8
S11324101296ED91FC9113971082ED91FC917195B8
S1132420619571096F3F710519F014F06FEF70E059
S113243060830895DC01ED91FC911197108212964E
S1132440ED91FC9113976F3F710519F014F06FEF44
S113245070E0608308957723ACF4DC011696ED9167
S1132460FC91179710821496ED91FC911597719534
S1132470619571096F3F710519F014F06FEF70E009
S113248060830895DC011496ED91FC9115971082F8
S11324901696ED91FC9117976F3F710519F014F0A2
S11324A06FEF70E0608308950F931F93CF93DF93D2
S11324B0EC018A010E940512B801CE010E942B1280
S11324C0DF91CF911F910F910895CF93DF93DC019A
S11324D01496ED91FC91159716960D90BC91A02D34
S11324E08FEF8C938083DF91CF910895CF93DF9307
S11324F0DC01ED91FC91119712960D90BC91A02DE9
S11325008FEF8C938083DF91CF910895CF93DF93E6
S1132510DC011496ED91FC91159716960D90BC91E3
S1132520A02D1C921082DF91CF910895CF93DF9359
S1132530DC01ED91FC91119712960D90BC91A02DA8
S11325401C921082DF91CF910895CF93DF93EC0119
S11325500E947612CE010E946512DF91CF910895F8
S1132560FC012185211102C042E001C041E0FC01CF
S1132570808590E0982F8827489F9001499F300DCF
S11325801124032E000C440B550B60EE7EE280E018
S113259090E00E94DF18822F0895CF93DF93EC011F
S11325A00E948612CE010E949612DF91CF91089567
S11325B008955058BB27AA270E94F1120C946B145B
S11325C00E945D1438F00E94641420F039F49F3F97
S11325D019F426F40C945A140EF4E095E7FB0C94C9
S11325E05414E92F0E947C1458F3BA176207730736
S11325F08407950720F079F4A6F50C949E140EF444
S1132600E0950B2EBA2FA02D0B01B90190010C01FE
S1132610CA01A0011124FF27591B99F0593F50F416
S1132620503E68F11A16F040A22F232F342F44276E
S1132630585FF3CF469537952795A795F040539566
S1132640C9F77EF41F16BA0B620B730B840BBAF036
S11326509150A1F0FF0FBB1F661F771F881FC2F7A1
S11326600EC0BA0F621F731F841F48F487957795B5
S11326706795B795F7959E3F08F0B0CF9395880F6F
S113268008F09927EE0F9795879508950E943014C6
S113269008F481E008950E945F130C946B140E9467
S11326A0641458F00E945D1440F029F45F3F29F04F
S11326B00C94541451110C949F140C945A140E94A9
S11326C07C1468F39923B1F3552391F3951B550BAF
S11326D0BB27AA2762177307840738F09F5F5F4FF1
S11326E0220F331F441FAA1FA9F335D00E2E3AF030
S11326F0E0E832D091505040E695001CCAF72BD048
S1132700FE2F29D0660F771F881FBB1F2617370798
S11327104807AB07B0E809F0BB0B802DBF01FF27CA
S113272093585F4F3AF09E3F510578F00C9454143F
S11327300C949F145F3FE4F3983ED4F38695779509
S11327406795B795F7959F5FC9F7880F911D969583
S1132750879597F90895E1E0660F771F881FBB1FDF
S1132760621773078407BA0720F0621B730B840B8C
S1132770BA0BEE1F88F7E09508950E94C41368947D
S1132780B1110C949F1408950E94841488F09F57EB
S113279098F0B92F9927B751B0F0E1F0660F771F81
S11327A0881F991F1AF0BA95C9F714C0B13091F077
S11327B00E949E14B1E008950C949E14672F782F04
S11327C08827B85F39F0B93FCCF38695779567953C
S11327D0B395D9F73EF490958095709561957F4FA8
S11327E08F4F9F4F0895E89409C097FB3EF490954E
S11327F08095709561957F4F8F4F9F4F9923A9F0D6
S1132800F92F96E9BB279395F69587957795679564
S1132810B795F111F8CFFAF4BB0F11F460FF1BC0A8
S11328206F5F7F4F8F4F9F4F16C0882311F096E93B
S113283011C0772321F09EE8872F762F05C06623E9
S113284071F096E8862F70E060E02AF09A95660FA2
S1132850771F881FDAF7880F9695879597F908955B
S1132860990F0008550FAA0BE0E8FEEF161617069D
S1132870E807F907C0F012161306E407F50798F005
S1132880621B730B840B950B39F40A2661F0232B1E
S1132890242B252B21F408950A2609F4A140A6959A
S11328A08FEF811D811D089597F99F6780E870E07F
S11328B060E008959FEF80EC089500240A941616B2
S11328C0170618060906089500240A94121613061A
S11328D0140605060895092E0394000C11F48823A8
S11328E052F0BB0F40F4BF2B11F460FF04C06F5FC4
S11328F07F4F8F4F9F4F089557FD9058440F551F9A
S113290059F05F3F71F04795880F97FB991F61F06D
S11329109F3F79F087950895121613061406551FE4
S1132920F2CF4695F1DF08C0161617061806991F50
S1132930F1CF86957105610508940895E894BB2745
S113294066277727CB0197F908950E948414A8F18C
S11329509E57B0F1985160F039F1983070F5092E16
S11329609927660F771F881F991F0A94D1F71CC0F7
S1132970BB27993F4CF4B111B1E0B62B672F782FE8
S11329808827985FB1F708C0869577956795B795BE
S113299008F4B1609395C1F7BB0F30F411F460FFF4
S11329A003C06F5F7F4F8F4F3EF490958095709575
S11329B061957F4F8F4F9F4F089568940C949F1497
S11329C00C949E140E94F5140C946B140E945D14D4
S11329D038F00E94641420F0952311F00C945414E0
S11329E00C945A1411240C949F140E947C1470F3B8
S11329F0959FC1F3950F50E0551F629FF001729FA0
S1132A00BB27F00DB11D639FAA27F00DB11DAA1FAE
S1132A10649F6627B00DA11D661F829F2227B00DFB
S1132A20A11D621F739FB00DA11D621F839FA00D86
S1132A30611D221F749F3327A00D611D231F849FD6
S1132A40600D211D822F762F6A2F11249F5750402D
S1132A509AF0F1F088234AF0EE0FFF1FBB1F661FA8
S1132A60771F881F91505040A9F79E3F510580F071
S1132A700C9454140C949F145F3FE4F3983ED4F3E5
S1132A80869577956795B795F795E7959F5FC1F715
S1132A90FE2B880F911D9695879597F90895A3E1CC
S1132AA0B0E0E5E5F5E10C9438196C014B012A011D
S1132AB0FC0117821682838181FF43C3AE014F5FFD
S1132AC05F4F3A01F6019381F40193FD859193FFE1
S1132AD081914F01882309F430C3853239F493FD81
S1132AE0859193FF81914F01853239F4B60190E0CD
S1132AF00E94F61B52012501E5CF10E0F12C20E0E5
S1132B002032A0F48B3269F030F4803259F08332F1
S1132B1069F420612CC08D3239F0803339F421609E
S1132B2026C02260246023C0286021C027FD27C05E
S1132B3030ED380F3A3078F426FF06C0FAE01F9FD4
S1132B40300D1124132F13C04AE0F49E300D1124CC
S1132B50F32E20620CC08E3221F426FDEEC22064D6
S1132B6006C08C3611F4206802C0883641F4F401A2
S1132B7093FD859193FF81914F018111C1CF9BEB0F
S1132B80980F933018F42061805E06C09BE9980F7B
S1132B90933008F071C12F7E26FF16E02F73322E7A
S1132BA0853619F42064322E08C0863621F4F22FBB
S1132BB0F0683F2E02C01111115037FE07C01C33BC
S1132BC050F4EE24E394E10E27E00BC0183038F003
S1132BD027E017E005C027E04CE3E42E02C0212FD4
S1132BE0E12C520144E0A40EB11CF2016081718118
S1132BF0828193810E2DA3010E94AB1A2C010981BD
S1132C0000FF02C003FF07C031FC08C032FE09C048
S1132C1030E2232E07C02DE2222E04C09BE2292E8F
S1132C2001C0212C802F8C7019F0211068C2A8C219
S1132C3037FE0FC0E40C04FF04C08A81813309F419
S1132C40EA941E1474F5F8E0FE1578F588E0E82E91
S1132C502CC036FC2AC0812F90E0841595059CF089
S1132C602CEF42162FEF520674F0432D4068342E99
S1132C700AC0E2E0F0E0EC0FFD1FE10FF11D8081DE
S1132C80803319F411501111F4CF37FE0EC0EE2425
S1132C90E394E10E812F90E0481659062CF41419A0
S1132CA004C0EE24E39401C010E037FE06C01414FF
S1132CB0150434F4C201019605C085E090E002C019
S1132CC081E090E021100196112331F0212F30E0B2
S1132CD02F5F3F4F820F931F2F2D30E082179307F2
S1132CE014F4F81A01C0F12C832D897049F4FF20E3
S1132CF039F0B60180E290E00E94F61BFA94F7CF17
S1132D00222029F0B601822D90E00E94F61B33FCAC
S1132D1009C0FF2039F0B60180E390E00E94F61B61
S1132D20FA94F7CF37FE5AC0942D852D57FE02C072
S1132D3090E080E0292E382E20E030E0A2014E19E8
S1132D4051095D874C87A201421953095F874E8759
S1132D50612F70E044275527461B570B598B488B2E
S1132D605FEF2516350649F4B6018EE290E02A8B12
S1132D703B8B0E94F61B3B892A89421453046CF056
S1132D804C855D854215530544F4EE85FF85E20FBD
S1132D90F31FE60DF71D818101C080E351E0251A80
S1132DA031082F5F3F4F48895989241635064CF066
S1132DB0B60190E02A8B3B8B0E94F61B2A893B8943
S1132DC0CFCF2414350439F49A81963318F495330B
S1132DD011F404FF81E3B60190E04BC08A81813392
S1132DE009F00F7EB60190E00E94F61B111105C098
S1132DF034FC18C085E690E017C0B6018EE290E07E
S1132E000E94F61B82E0EE24E394E80EF301E80F3F
S1132E10F11D8081B60190E00E94F61B11508E2DA9
S1132E2091F7E6CF85E490E0B6010E94F61B57FCCB
S1132E3005C04114510439F404FF05C05194419470
S1132E4051088DE201C08BE2B60190E00E94F61BAE
S1132E5080E39AE0491651042CF08F5F5AE0451A3A
S1132E605108F7CFB60190E00E94F61BB601C201EB
S1132E70C0960E94F61B57C1833631F0833779F030
S1132E80833509F058C021C05201E2E0AE0EB11CF6
S1132E90F2018081898301E010E0230114C0520112
S1132EA0F2E0AF0EB11CF2014080518026FF03C056
S1132EB0612F70E002C06FEF7FEFC2012A8B0E9486
S1132EC08E1B8C012A892F7715C05201F2E0AF0EB8
S1132ED0B11CF2014080518026FF03C0612F70E0D5
S1132EE002C06FEF7FEFC2012A8B0E94831B8C010B
S1132EF02A892068322E23FD1AC08F2D90E00817EE
S1132F001907A8F4B60180E290E00E94F61BFA9437
S1132F10F4CFF20137FC859137FE81912F01B60180
S1132F2090E00E94F61BF110FA940150110901156A
S1132F30110579F7F8C0843611F0893659F5520134
S1132F4027FF09C0F4E0AF0EB11CF201608171816A
S1132F50828193810AC0F2E0AF0EB11CF20160815C
S1132F607181072E000C880B990B2F76322E97FF58
S1132F7009C090958095709561957F4F8F4F9F4FB5
S1132F802068322E2AE030E0A3010E94511CE82E72
S1132F90E6183FC0022F853721F40F7E2AE030E087
S1132FA01DC0097F8F3691F018F4883559F0C5C0DB
S1132FB0803719F0883711F0C0C0006104FF09C0E0
S1132FC0046007C024FF08C0066006C028E030E0A3
S1132FD005C020E130E002C020E132E0520107FFE9
S1132FE009C0F4E0AF0EB11CF201608171818281ED
S1132FF0938108C0F2E0AF0EB11CF20160817181CF
S113300080E090E0A3010E94511CE82EE6180F779F
S1133010302E36FE0BC0332D3E7FE11650F434FEC5
S11330200AC032FC08C0332D3E7E05C00E2D332D60
S113303003C00E2D01C0012F34FF0CC0FE01EE0DA4
S1133040F11D8081803311F4397E08C032FF05C040
S11330500E5F04C0832F867809F00F5F33FD13C021
S113306030FF06C01E2D0F1518F41F0D101B0F2D59
S11330700F1568F4B60180E290E03B8B0E94F61BCA
S11330800F5F3B89F5CF0F1510F4F01A01C0F12C36
S113309034FF12C0B60180E390E03B8B0E94F61B24
S11330A03B8932FF17C031FD03C088E790E002C0BE
S11330B088E590E0B6010CC0832F867859F031FF83
S11330C002C08BE201C080E237FD8DE2B60190E0E0
S11330D00E94F61BE11638F4B60180E390E00E94EA
S11330E0F61B1150F7CFEA94F301EE0DF11D808128
S11330F0B60190E00E94F61BE110F5CF14C0F4E095
S1133100FF1558F584E0F81A33FE1EC0211026C0BE
S113311003FF2AC002ED10E0F32DF0713F2EF801F9
S11331208491811124C0FF2009F4E5CCB60180E22A
S113313090E00E94F61BFA94F6CFF60186819781FF
S113314026C08FEF9FEF23C0B60180E290E00E947B
S1133150F61BFA94F110F8CFD9CFF12CB601822DD9
S113316090E00E94F61BD4CF06ED10E0D5CF3110CD
S11331708052B60190E00E94F61B0F5F1F4FCFCF25
S113318023E02F1510F483E0BECFF12CC1CF63965A
S1133190E2E10C945419AA1BBB1B51E107C0AA1FFE
S11331A0BB1FA617B70710F0A61BB70B881F991FE4
S11331B05A95A9F780959095BC01CD010895A1E297
S11331C01A2EAA1BBB1BFD010DC0AA1FBB1FEE1F9D
S11331D0FF1FA217B307E407F50720F0A21BB30BE8
S11331E0E40BF50B661F771F881F991F1A9469F764
S11331F060957095809590959B01AC01BD01CF01C0
S11332000895052E97FB1EF400940E94181957FD8B
S113321007D00E94DF1807FC03D04EF40C94181951
S113322050954095309521953F4F4F4F5F4F0895EE
S113323090958095709561957F4F8F4F9F4F08951E
S1133240EE0FFF1F0590F491E02D09940E946F1971
S1133250B7FF0895821B930B08950E946F19A59FD1
S1133260900DB49F900DA49F800D911D112408957D
S11332702F923F924F925F926F927F928F929F9282
S1133280AF92BF92CF92DF92EF92FF920F931F9370
S1133290CF93DF93CDB7DEB7CA1BDB0B0FB6F89421
S11332A0DEBF0FBECDBF09942A88398848885F8461
S11332B06E847D848C849B84AA84B984C884DF80D2
S11332C0EE80FD800C811B81AA81B981CE0FD11DB6
S11332D00FB6F894DEBF0FBECDBFED010895A29FD7
S11332E0B001B39FC001A39F700D811D1124911DD6
S11332F0B29F700D811D1124911D0895CF93DF930A
S11333008230910510F482E090E0E0914904F0915C
S11333104A0420E030E0C0E0D0E0309711F1408171
S1133320518148175907C0F04817590761F4828141
S11333309381209719F09B838A832BC090934A042E
S11333408093490426C02115310519F0421753070B
S113335018F49A01BE01DF01EF010280F381E02D30
S1133360DCCF2115310509F1281B390B2430310537
S113337090F412968D919C9113976115710521F02B
S1133380FB019383828304C090934A04809349048D
S1133390FD01329644C0FD01E20FF31F8193919326
S11333A0225031092D933C933AC020914704309127
S11333B04804232B41F420910201309103013093FE
S11333C04804209347042091000130910101211504
S11333D0310541F42DB73EB74091040150910501E8
S11333E0241B350BE0914704F0914804E217F307DE
S11333F0A0F42E1B3F0B2817390778F0AC014E5F61
S11334005F4F2417350748F04E0F5F1F5093480451
S1133410409347048193919302C0E0E0F0E0CF0130
S1133420DF91CF9108950F931F93CF93DF9300976C
S113343009F48CC0FC013297138212820091490472
S113344010914A040115110581F420813181820F04
S1133450931F20914704309148042817390779F5C0
S1133460F0934804E093470471C0D80140E050E071
S1133470AE17BF0750F412962D913C911397AD01EE
S11334802115310509F1D901F3CF9D01DA01338307
S1133490228360817181860F971F8217930769F4D5
S11334A0EC0128813981260F371F2E5F3F4F31836E
S11334B020838A819B8193838283452B29F4F09313
S11334C04A04E093490442C01396FC93EE93129786
S11334D0ED01499159919E01240F351FE217F3071D
S11334E071F480819181840F951F029611969C93AB
S11334F08E938281938113969C938E931297E0E02E
S1133500F0E0D80112968D919C911397009719F0D1
S1133510F8018C01F6CF8D919C9198012E5F3F4F5D
S1133520820F931F209147043091480428173907CC
S113353069F4309729F410924A041092490402C0A5
S1133540138212821093480400934704DF91CF91B1
S11335501F910F910895283008F027E03327DA01EE
S1133560990F311D87FD916000966105710539F44D
S113357032602E5F3D9330E32A95E1F708959F3F33
S113358030F080387105610509F03C5F3C5F3D9384
S1133590913008F08068911DDF93CF931F930F93B0
S11335A0FF92EF92192F987F9695E92F969596950D
S11335B0E90FFF27EC5CFE4F99273327EE24FF2405
S11335C0A701E70105900894079428F4360FE71E35
S11335D0F81E491F511D660F771F881F991F0694F7
S11335E0A1F70590079428F4E70EF81E491F561F0B
S11335F0C11D770F881F991F661F0694A1F70590B8
S1133600079428F4F80E491F561FC71FD11D880FB1
S1133610991F661F771F0694A1F70590079420F45D
S1133620490F561FC71FD81F990F661F771F881F82
S11336300694A9F784911095177041F0D695C79513
S113364057954795F794E7941A95C1F7EAEDF0E09A
S113365068941590159135916591959105907FE247
S11336607395E118F10A430B560BC90BD009C0F747
S1133670E10CF11E431F561FC91FD01D7EF4703389
S113368011F48A95E6CFE894015030F0080F0AF45B
S11336900027021708F4202F2395022F7A3328F0ED
S11336A079E37D932A95E9F710C07D932A9589F6ED
S11336B0069497956795379517951794E118F10A2D
S11336C0430B560BC90BD00998F023957E91739543
S11336D07A3308F070E37C932013B8F77E9170611D
S11336E07D9330F0839571E37D9370E32A95E1F740
S11336F01124EF90FF900F911F91CF91DF919927A3
S113370087FD90950895FC0105906150704001106B
S1133710D8F7809590958E0F9F1F0895FC016150F6
S1133720704001900110D8F7809590958E0F9F1FDF
S113373008954532510520F4423010F00C94A41B36
S1133740FB011082CB010895BB274A3031F4992341
S113375022F4BDE2909581959F4F0C94DD1B253298
S1133760310520F4223010F00C94BA1BFA011082B7
S1133770CA010895BB27FA01A62F621771058105B6
S11337809105330B30FB66F0AA27660F771F881F5D
S1133790991FAA1FA21710F0A21B63953850A9F70E
S11337A0A05DAA3308F0A95DA19336F7B111B193D6
S11337B01082CA010C94AF1CBB27FB015527AA2712
S11337C0880F991FAA1FA41710F0A41B83955051AA
S11337D0B9F7A05DAA3308F0A95DA193009779F722
S11337E0B111B1931192CB010C94AF1C0F931F93A1
S11337F0CF93DF93FB01238121FD03C08FEF9FEF64
S113380028C022FF16C04681578124813581421782
S1133810530744F4A081B1819D012F5F3F4F318351
S113382020838C93268137812F5F3F4F37832683F4
S113383010C0EB01092F182F0084F185E02D0995A4
S1133840892BE1F68E819F8101969F838E83812F40
S1133850902FDF91CF911F910F910895AEE0B0E0CA
S1133860E4E3FCE10C9446190D891E8986E08C83FF
S11338701A8309838FEF9FE79E838D83AE01475E92
S11338805F4F6F89788DCE0101960E944F152F816D
S11338903885F801E20FF31F10822E96E4E00C94B1
S11338A06219FA01AA27283051F1203181F1E894F4
S11338B06F936E7F6E5F7F4F8F4F9F4FAF4FB1E01F
S11338C03ED0B4E03CD0670F781F891F9A1FA11D1A
S11338D0680F791F8A1F911DA11D6A0F711D811D1B
S11338E0911DA11D20D009F468943F912AE0269FE0
S11338F011243019305D3193DEF6CF010895462F3F
S11339004770405D4193B3E00FD0C9F7F6CF462F1F
S11339104F70405D4A3318F0495D31FD4052419388
S113392002D0A9F7EACFB4E0A69597958795779545
S11339306795BA95C9F700976105710508959B01CC
S1133940AC010A2E06945795479537952795BA9555
S1133950C9F7620F731F841F951FA01D0895DC0112
S1133960FC01672F71917723E1F7329704C07C91B2
S11339706D9370836291AE17BF07C8F30895F999E8
S1133980FECF92BD81BDF89A992780B50895262F60
S1133990F999FECF1FBA92BD81BD20BD0FB6F89430
S11339A0FA9AF99A0FBE0196089510E0CBEED0E092
S11339B004C0FE010E9420192196CC3ED107C9F70C
S10739C0F894FFCFA5
S11339C400004B0420004700480088008A000405D6
S11339D4060750307800306200252E336600252E09
S11339E4346600252E356600252E31660056616C3A
S11339F46F7265732064652063616C6962726163CC
S1133A04696F6E3A00090043616C696272616E64A5
S1133A146F2073656E736F7265732E2E2E002323CD
S1133A24232323232323232323232323232323235E
S1133A342323232323232323232323004C696E6575
S1133A4420466F6C6C6F776572204E617473756B6E
S1133A5479000A556C74696D612066656368612038
S1133A64646520636F6D70696C6163696F6E3A207D
S1133A74004D6172203239203230313600486F7281
S1133A84613A0032333A31303A3237000A506F77B0
S1133A94657265642062793A204D69636861656C76
S1133AA4205661726761730A0054656D70657261B2
S1133AB4747572612064656C204E75636C656F2D3A
S1133AC43E002043002A54656D70657261747572FA
S1133AD46120416C7461212A00566F6C74616A65BB
S1133AE420646520626174657269612D3E0020560C
S1133AF4004672657175656E636961206D6F746FDC
S1133B047265732D3E00204B687A0056656C2E2036
S1133B146D6178696D612D3E002500566261743AC9
S1133B240056656C2E20696E696369616C3A0056AF
S1133B34656C2E206D61783A0056656C2E20726592
S1133B44637461733A000A52656164792E2E2E21DE
S1133B54002A5469636B732052696768743A0020BD
S1133B642A5469636B73204C6566743A002A46725E
S1133B74656E616E646F20656C20726F626F742E63
S1133B842E2E002A4163746976616E646F20656C1D
S1133B9420726F626F742E2E2E002A41746976612E
S1133BA46E646F207072696E74506F736974696F98
S1133BB46E2E2E2E002A4465736163746976616ED9
S1133BC4646F207072696E74506F736974696F6E78
S10B3BD42E2E2E004F4B2100A0
S9030000FC
